{
  "contractName": "AcceptEverythingPaymaster",
  "abi": [
    {
      "anonymous": false,
      "inputs": [
        {
          "indexed": true,
          "internalType": "address",
          "name": "previousOwner",
          "type": "address"
        },
        {
          "indexed": true,
          "internalType": "address",
          "name": "newOwner",
          "type": "address"
        }
      ],
      "name": "OwnershipTransferred",
      "type": "event"
    },
    {
      "inputs": [],
      "name": "CALLDATA_SIZE_LIMIT",
      "outputs": [
        {
          "internalType": "uint256",
          "name": "",
          "type": "uint256"
        }
      ],
      "stateMutability": "view",
      "type": "function"
    },
    {
      "inputs": [],
      "name": "FORWARDER_HUB_OVERHEAD",
      "outputs": [
        {
          "internalType": "uint256",
          "name": "",
          "type": "uint256"
        }
      ],
      "stateMutability": "view",
      "type": "function"
    },
    {
      "inputs": [],
      "name": "PAYMASTER_ACCEPTANCE_BUDGET",
      "outputs": [
        {
          "internalType": "uint256",
          "name": "",
          "type": "uint256"
        }
      ],
      "stateMutability": "view",
      "type": "function"
    },
    {
      "inputs": [],
      "name": "POST_RELAYED_CALL_GAS_LIMIT",
      "outputs": [
        {
          "internalType": "uint256",
          "name": "",
          "type": "uint256"
        }
      ],
      "stateMutability": "view",
      "type": "function"
    },
    {
      "inputs": [],
      "name": "PRE_RELAYED_CALL_GAS_LIMIT",
      "outputs": [
        {
          "internalType": "uint256",
          "name": "",
          "type": "uint256"
        }
      ],
      "stateMutability": "view",
      "type": "function"
    },
    {
      "inputs": [
        {
          "components": [
            {
              "components": [
                {
                  "internalType": "address",
                  "name": "from",
                  "type": "address"
                },
                {
                  "internalType": "address",
                  "name": "to",
                  "type": "address"
                },
                {
                  "internalType": "uint256",
                  "name": "value",
                  "type": "uint256"
                },
                {
                  "internalType": "uint256",
                  "name": "gas",
                  "type": "uint256"
                },
                {
                  "internalType": "uint256",
                  "name": "nonce",
                  "type": "uint256"
                },
                {
                  "internalType": "bytes",
                  "name": "data",
                  "type": "bytes"
                },
                {
                  "internalType": "uint256",
                  "name": "validUntil",
                  "type": "uint256"
                }
              ],
              "internalType": "struct IForwarder.ForwardRequest",
              "name": "request",
              "type": "tuple"
            },
            {
              "components": [
                {
                  "internalType": "uint256",
                  "name": "gasPrice",
                  "type": "uint256"
                },
                {
                  "internalType": "uint256",
                  "name": "pctRelayFee",
                  "type": "uint256"
                },
                {
                  "internalType": "uint256",
                  "name": "baseRelayFee",
                  "type": "uint256"
                },
                {
                  "internalType": "address",
                  "name": "relayWorker",
                  "type": "address"
                },
                {
                  "internalType": "address",
                  "name": "paymaster",
                  "type": "address"
                },
                {
                  "internalType": "address",
                  "name": "forwarder",
                  "type": "address"
                },
                {
                  "internalType": "bytes",
                  "name": "paymasterData",
                  "type": "bytes"
                },
                {
                  "internalType": "uint256",
                  "name": "clientId",
                  "type": "uint256"
                }
              ],
              "internalType": "struct GsnTypes.RelayData",
              "name": "relayData",
              "type": "tuple"
            }
          ],
          "internalType": "struct GsnTypes.RelayRequest",
          "name": "relayRequest",
          "type": "tuple"
        }
      ],
      "name": "_verifyForwarder",
      "outputs": [],
      "stateMutability": "view",
      "type": "function"
    },
    {
      "inputs": [],
      "name": "getGasAndDataLimits",
      "outputs": [
        {
          "components": [
            {
              "internalType": "uint256",
              "name": "acceptanceBudget",
              "type": "uint256"
            },
            {
              "internalType": "uint256",
              "name": "preRelayedCallGasLimit",
              "type": "uint256"
            },
            {
              "internalType": "uint256",
              "name": "postRelayedCallGasLimit",
              "type": "uint256"
            },
            {
              "internalType": "uint256",
              "name": "calldataSizeLimit",
              "type": "uint256"
            }
          ],
          "internalType": "struct IPaymaster.GasAndDataLimits",
          "name": "limits",
          "type": "tuple"
        }
      ],
      "stateMutability": "view",
      "type": "function"
    },
    {
      "inputs": [],
      "name": "getHubAddr",
      "outputs": [
        {
          "internalType": "address",
          "name": "",
          "type": "address"
        }
      ],
      "stateMutability": "view",
      "type": "function"
    },
    {
      "inputs": [],
      "name": "getRelayHubDeposit",
      "outputs": [
        {
          "internalType": "uint256",
          "name": "",
          "type": "uint256"
        }
      ],
      "stateMutability": "view",
      "type": "function"
    },
    {
      "inputs": [],
      "name": "owner",
      "outputs": [
        {
          "internalType": "address",
          "name": "",
          "type": "address"
        }
      ],
      "stateMutability": "view",
      "type": "function"
    },
    {
      "inputs": [],
      "name": "renounceOwnership",
      "outputs": [],
      "stateMutability": "nonpayable",
      "type": "function"
    },
    {
      "inputs": [
        {
          "internalType": "contract IRelayHub",
          "name": "hub",
          "type": "address"
        }
      ],
      "name": "setRelayHub",
      "outputs": [],
      "stateMutability": "nonpayable",
      "type": "function"
    },
    {
      "inputs": [
        {
          "internalType": "contract IForwarder",
          "name": "forwarder",
          "type": "address"
        }
      ],
      "name": "setTrustedForwarder",
      "outputs": [],
      "stateMutability": "nonpayable",
      "type": "function"
    },
    {
      "inputs": [
        {
          "internalType": "address",
          "name": "newOwner",
          "type": "address"
        }
      ],
      "name": "transferOwnership",
      "outputs": [],
      "stateMutability": "nonpayable",
      "type": "function"
    },
    {
      "inputs": [],
      "name": "trustedForwarder",
      "outputs": [
        {
          "internalType": "contract IForwarder",
          "name": "",
          "type": "address"
        }
      ],
      "stateMutability": "view",
      "type": "function"
    },
    {
      "inputs": [
        {
          "internalType": "uint256",
          "name": "amount",
          "type": "uint256"
        },
        {
          "internalType": "address payable",
          "name": "target",
          "type": "address"
        }
      ],
      "name": "withdrawRelayHubDepositTo",
      "outputs": [],
      "stateMutability": "nonpayable",
      "type": "function"
    },
    {
      "stateMutability": "payable",
      "type": "receive"
    },
    {
      "inputs": [],
      "name": "versionPaymaster",
      "outputs": [
        {
          "internalType": "string",
          "name": "",
          "type": "string"
        }
      ],
      "stateMutability": "view",
      "type": "function"
    },
    {
      "inputs": [
        {
          "components": [
            {
              "components": [
                {
                  "internalType": "address",
                  "name": "from",
                  "type": "address"
                },
                {
                  "internalType": "address",
                  "name": "to",
                  "type": "address"
                },
                {
                  "internalType": "uint256",
                  "name": "value",
                  "type": "uint256"
                },
                {
                  "internalType": "uint256",
                  "name": "gas",
                  "type": "uint256"
                },
                {
                  "internalType": "uint256",
                  "name": "nonce",
                  "type": "uint256"
                },
                {
                  "internalType": "bytes",
                  "name": "data",
                  "type": "bytes"
                },
                {
                  "internalType": "uint256",
                  "name": "validUntil",
                  "type": "uint256"
                }
              ],
              "internalType": "struct IForwarder.ForwardRequest",
              "name": "request",
              "type": "tuple"
            },
            {
              "components": [
                {
                  "internalType": "uint256",
                  "name": "gasPrice",
                  "type": "uint256"
                },
                {
                  "internalType": "uint256",
                  "name": "pctRelayFee",
                  "type": "uint256"
                },
                {
                  "internalType": "uint256",
                  "name": "baseRelayFee",
                  "type": "uint256"
                },
                {
                  "internalType": "address",
                  "name": "relayWorker",
                  "type": "address"
                },
                {
                  "internalType": "address",
                  "name": "paymaster",
                  "type": "address"
                },
                {
                  "internalType": "address",
                  "name": "forwarder",
                  "type": "address"
                },
                {
                  "internalType": "bytes",
                  "name": "paymasterData",
                  "type": "bytes"
                },
                {
                  "internalType": "uint256",
                  "name": "clientId",
                  "type": "uint256"
                }
              ],
              "internalType": "struct GsnTypes.RelayData",
              "name": "relayData",
              "type": "tuple"
            }
          ],
          "internalType": "struct GsnTypes.RelayRequest",
          "name": "relayRequest",
          "type": "tuple"
        },
        {
          "internalType": "bytes",
          "name": "signature",
          "type": "bytes"
        },
        {
          "internalType": "bytes",
          "name": "approvalData",
          "type": "bytes"
        },
        {
          "internalType": "uint256",
          "name": "maxPossibleGas",
          "type": "uint256"
        }
      ],
      "name": "preRelayedCall",
      "outputs": [
        {
          "internalType": "bytes",
          "name": "context",
          "type": "bytes"
        },
        {
          "internalType": "bool",
          "name": "revertOnRecipientRevert",
          "type": "bool"
        }
      ],
      "stateMutability": "nonpayable",
      "type": "function"
    },
    {
      "inputs": [
        {
          "internalType": "bytes",
          "name": "context",
          "type": "bytes"
        },
        {
          "internalType": "bool",
          "name": "success",
          "type": "bool"
        },
        {
          "internalType": "uint256",
          "name": "gasUseWithoutPost",
          "type": "uint256"
        },
        {
          "components": [
            {
              "internalType": "uint256",
              "name": "gasPrice",
              "type": "uint256"
            },
            {
              "internalType": "uint256",
              "name": "pctRelayFee",
              "type": "uint256"
            },
            {
              "internalType": "uint256",
              "name": "baseRelayFee",
              "type": "uint256"
            },
            {
              "internalType": "address",
              "name": "relayWorker",
              "type": "address"
            },
            {
              "internalType": "address",
              "name": "paymaster",
              "type": "address"
            },
            {
              "internalType": "address",
              "name": "forwarder",
              "type": "address"
            },
            {
              "internalType": "bytes",
              "name": "paymasterData",
              "type": "bytes"
            },
            {
              "internalType": "uint256",
              "name": "clientId",
              "type": "uint256"
            }
          ],
          "internalType": "struct GsnTypes.RelayData",
          "name": "relayData",
          "type": "tuple"
        }
      ],
      "name": "postRelayedCall",
      "outputs": [],
      "stateMutability": "nonpayable",
      "type": "function"
    }
  ],
  "bytecode": "0x608060405234801561001057600080fd5b5060006100216100c460201b60201c565b9050806000806101000a81548173ffffffffffffffffffffffffffffffffffffffff021916908373ffffffffffffffffffffffffffffffffffffffff1602179055508073ffffffffffffffffffffffffffffffffffffffff16600073ffffffffffffffffffffffffffffffffffffffff167f8be0079c531659141344cd1fd0a4f28419497f9722a3daafe3b4186f6b6457e060405160405180910390a3506100cc565b600033905090565b611b82806100db6000396000f3fe6080604052600436106101175760003560e01c80638da5cb5b116100a0578063bbdaa3c911610064578063bbdaa3c914610494578063da742228146104bf578063df463a66146104e8578063f2fde38b14610513578063f9c002f71461053c5761023e565b80638da5cb5b146103bf578063921276ea146103ea578063a5dcd07b14610415578063b039a88f1461043e578063b90b41cf146104695761023e565b8063715018a6116100e7578063715018a61461030057806374e861d61461031757806376fa01c3146103425780637bb052641461036b5780637da0a877146103945761023e565b8062be5dd4146102435780632afe31c1146102815780632d14c4b7146102ac5780635c5e3db1146102d55761023e565b3661023e57600073ffffffffffffffffffffffffffffffffffffffff16600160009054906101000a900473ffffffffffffffffffffffffffffffffffffffff1673ffffffffffffffffffffffffffffffffffffffff1614156101ae576040517f08c379a00000000000000000000000000000000000000000000000000000000081526004016101a59061180c565b60405180910390fd5b600160009054906101000a900473ffffffffffffffffffffffffffffffffffffffff1673ffffffffffffffffffffffffffffffffffffffff1663aa67c91934306040518363ffffffff1660e01b815260040161020a9190611744565b6000604051808303818588803b15801561022357600080fd5b505af1158015610237573d6000803e3d6000fd5b5050505050005b600080fd5b34801561024f57600080fd5b5061026a60048036038101906102659190611359565b610567565b60405161027892919061175f565b60405180910390f35b34801561028d57600080fd5b5061029661058c565b6040516102a39190611887565b60405180910390f35b3480156102b857600080fd5b506102d360048036038101906102ce9190611435565b61063e565b005b3480156102e157600080fd5b506102ea61077f565b6040516102f79190611887565b60405180910390f35b34801561030c57600080fd5b50610315610785565b005b34801561032357600080fd5b5061032c6108f2565b6040516103399190611729565b60405180910390f35b34801561034e57600080fd5b506103696004803603810190610364919061122e565b61091c565b005b34801561037757600080fd5b50610392600480360381019061038d91906112ef565b610923565b005b3480156103a057600080fd5b506103a9610a16565b6040516103b6919061178f565b60405180910390f35b3480156103cb57600080fd5b506103d4610a3c565b6040516103e19190611729565b60405180910390f35b3480156103f657600080fd5b506103ff610a65565b60405161040c91906117aa565b60405180910390f35b34801561042157600080fd5b5061043c60048036038101906104379190611318565b610a85565b005b34801561044a57600080fd5b50610453610b42565b604051610460919061186c565b60405180910390f35b34801561047557600080fd5b5061047e610b7f565b60405161048b9190611887565b60405180910390f35b3480156104a057600080fd5b506104a9610b85565b6040516104b69190611887565b60405180910390f35b3480156104cb57600080fd5b506104e660048036038101906104e191906112c6565b610b8c565b005b3480156104f457600080fd5b506104fd610c7f565b60405161050a9190611887565b60405180910390f35b34801561051f57600080fd5b5061053a600480360381019061053591906111dc565b610c8a565b005b34801561054857600080fd5b50610551610e7c565b60405161055e9190611887565b60405180910390f35b6060600080604051806020016040528060008152509091509150965096945050505050565b6000600160009054906101000a900473ffffffffffffffffffffffffffffffffffffffff1673ffffffffffffffffffffffffffffffffffffffff166370a08231306040518263ffffffff1660e01b81526004016105e99190611744565b60206040518083038186803b15801561060157600080fd5b505afa158015610615573d6000803e3d6000fd5b505050506040513d601f19601f82011682018060405250810190610639919061140c565b905090565b610646610e83565b73ffffffffffffffffffffffffffffffffffffffff16610664610a3c565b73ffffffffffffffffffffffffffffffffffffffff16146106ed576040517f08c379a00000000000000000000000000000000000000000000000000000000081526004018080602001828103825260208152602001807f4f776e61626c653a2063616c6c6572206973206e6f7420746865206f776e657281525060200191505060405180910390fd5b600160009054906101000a900473ffffffffffffffffffffffffffffffffffffffff1673ffffffffffffffffffffffffffffffffffffffff1662f714ce83836040518363ffffffff1660e01b81526004016107499291906118a2565b600060405180830381600087803b15801561076357600080fd5b505af1158015610777573d6000803e3d6000fd5b505050505050565b61290481565b61078d610e83565b73ffffffffffffffffffffffffffffffffffffffff166107ab610a3c565b73ffffffffffffffffffffffffffffffffffffffff1614610834576040517f08c379a00000000000000000000000000000000000000000000000000000000081526004018080602001828103825260208152602001807f4f776e61626c653a2063616c6c6572206973206e6f7420746865206f776e657281525060200191505060405180910390fd5b600073ffffffffffffffffffffffffffffffffffffffff1660008054906101000a900473ffffffffffffffffffffffffffffffffffffffff1673ffffffffffffffffffffffffffffffffffffffff167f8be0079c531659141344cd1fd0a4f28419497f9722a3daafe3b4186f6b6457e060405160405180910390a360008060006101000a81548173ffffffffffffffffffffffffffffffffffffffff021916908373ffffffffffffffffffffffffffffffffffffffff160217905550565b6000600160009054906101000a900473ffffffffffffffffffffffffffffffffffffffff16905090565b5050505050565b61092b610e83565b73ffffffffffffffffffffffffffffffffffffffff16610949610a3c565b73ffffffffffffffffffffffffffffffffffffffff16146109d2576040517f08c379a00000000000000000000000000000000000000000000000000000000081526004018080602001828103825260208152602001807f4f776e61626c653a2063616c6c6572206973206e6f7420746865206f776e657281525060200191505060405180910390fd5b80600160006101000a81548173ffffffffffffffffffffffffffffffffffffffff021916908373ffffffffffffffffffffffffffffffffffffffff16021790555050565b600260009054906101000a900473ffffffffffffffffffffffffffffffffffffffff1681565b60008060009054906101000a900473ffffffffffffffffffffffffffffffffffffffff16905090565b6060604051806060016040528060298152602001611afe60299139905090565b808060200190610a9591906118ef565b60a0016020810190610aa791906111dc565b73ffffffffffffffffffffffffffffffffffffffff16600260009054906101000a900473ffffffffffffffffffffffffffffffffffffffff1673ffffffffffffffffffffffffffffffffffffffff1614610b36576040517f08c379a0000000000000000000000000000000000000000000000000000000008152600401610b2d9061182c565b60405180910390fd5b610b3f81610e8b565b50565b610b4a61108b565b604051806080016040528061c350620186a0018152602001620186a081526020016201adb08152602001612904815250905090565b61c35081565b6201adb081565b610b94610e83565b73ffffffffffffffffffffffffffffffffffffffff16610bb2610a3c565b73ffffffffffffffffffffffffffffffffffffffff1614610c3b576040517f08c379a00000000000000000000000000000000000000000000000000000000081526004018080602001828103825260208152602001807f4f776e61626c653a2063616c6c6572206973206e6f7420746865206f776e657281525060200191505060405180910390fd5b80600260006101000a81548173ffffffffffffffffffffffffffffffffffffffff021916908373ffffffffffffffffffffffffffffffffffffffff16021790555050565b61c350620186a00181565b610c92610e83565b73ffffffffffffffffffffffffffffffffffffffff16610cb0610a3c565b73ffffffffffffffffffffffffffffffffffffffff1614610d39576040517f08c379a00000000000000000000000000000000000000000000000000000000081526004018080602001828103825260208152602001807f4f776e61626c653a2063616c6c6572206973206e6f7420746865206f776e657281525060200191505060405180910390fd5b600073ffffffffffffffffffffffffffffffffffffffff168173ffffffffffffffffffffffffffffffffffffffff161415610dbf576040517f08c379a0000000000000000000000000000000000000000000000000000000008152600401808060200182810382526026815260200180611b276026913960400191505060405180910390fd5b8073ffffffffffffffffffffffffffffffffffffffff1660008054906101000a900473ffffffffffffffffffffffffffffffffffffffff1673ffffffffffffffffffffffffffffffffffffffff167f8be0079c531659141344cd1fd0a4f28419497f9722a3daafe3b4186f6b6457e060405160405180910390a3806000806101000a81548173ffffffffffffffffffffffffffffffffffffffff021916908373ffffffffffffffffffffffffffffffffffffffff16021790555050565b620186a081565b600033905090565b600080828060000190610e9e91906118cb565b6020016020810190610eb091906111dc565b73ffffffffffffffffffffffffffffffffffffffff1663572b6c0560e01b848060200190610ede91906118ef565b60a0016020810190610ef091906111dc565b604051602401610f009190611729565b604051602081830303815290604052907bffffffffffffffffffffffffffffffffffffffffffffffffffffffff19166020820180517bffffffffffffffffffffffffffffffffffffffffffffffffffffffff8381831617835250505050604051610f6a9190611712565b600060405180830381855afa9150503d8060008114610fa5576040519150601f19603f3d011682016040523d82523d6000602084013e610faa565b606091505b509150915081610fef576040517f08c379a0000000000000000000000000000000000000000000000000000000008152600401610fe6906117ec565b60405180910390fd5b6020815114611033576040517f08c379a000000000000000000000000000000000000000000000000000000000815260040161102a9061184c565b60405180910390fd5b808060200190518101906110479190611205565b611086576040517f08c379a000000000000000000000000000000000000000000000000000000000815260040161107d906117cc565b60405180910390fd5b505050565b6040518060800160405280600081526020016000815260200160008152602001600081525090565b6000813590506110c281611a73565b92915050565b6000813590506110d781611a8a565b92915050565b6000813590506110ec81611aa1565b92915050565b60008151905061110181611aa1565b92915050565b60008083601f84011261111957600080fd5b8235905067ffffffffffffffff81111561113257600080fd5b60208301915083600182028301111561114a57600080fd5b9250929050565b60008135905061116081611ab8565b92915050565b60008135905061117581611acf565b92915050565b6000610100828403121561118e57600080fd5b81905092915050565b6000604082840312156111a957600080fd5b81905092915050565b6000813590506111c181611ae6565b92915050565b6000815190506111d681611ae6565b92915050565b6000602082840312156111ee57600080fd5b60006111fc848285016110b3565b91505092915050565b60006020828403121561121757600080fd5b6000611225848285016110f2565b91505092915050565b60008060008060006080868803121561124657600080fd5b600086013567ffffffffffffffff81111561126057600080fd5b61126c88828901611107565b9550955050602061127f888289016110dd565b9350506040611290888289016111b2565b925050606086013567ffffffffffffffff8111156112ad57600080fd5b6112b98882890161117b565b9150509295509295909350565b6000602082840312156112d857600080fd5b60006112e684828501611151565b91505092915050565b60006020828403121561130157600080fd5b600061130f84828501611166565b91505092915050565b60006020828403121561132a57600080fd5b600082013567ffffffffffffffff81111561134457600080fd5b61135084828501611197565b91505092915050565b6000806000806000806080878903121561137257600080fd5b600087013567ffffffffffffffff81111561138c57600080fd5b61139889828a01611197565b965050602087013567ffffffffffffffff8111156113b557600080fd5b6113c189828a01611107565b9550955050604087013567ffffffffffffffff8111156113e057600080fd5b6113ec89828a01611107565b935093505060606113ff89828a016111b2565b9150509295509295509295565b60006020828403121561141e57600080fd5b600061142c848285016111c7565b91505092915050565b6000806040838503121561144857600080fd5b6000611456858286016111b2565b9250506020611467858286016110c8565b9150509250929050565b61147a816119d5565b82525050565b61148981611969565b82525050565b61149881611957565b82525050565b6114a78161197b565b82525050565b60006114b882611914565b6114c2818561192a565b93506114d2818560208601611a2f565b6114db81611a62565b840191505092915050565b60006114f182611914565b6114fb818561193b565b935061150b818560208601611a2f565b80840191505092915050565b611520816119e7565b82525050565b60006115318261191f565b61153b8185611946565b935061154b818560208601611a2f565b61155481611a62565b840191505092915050565b600061156c601f83611946565b91507f696e76616c696420666f7277617264657220666f7220726563697069656e74006000830152602082019050919050565b60006115ac601c83611946565b91507f697354727573746564466f727761726465723a207265766572746564000000006000830152602082019050919050565b60006115ec601983611946565b91507f72656c6179206875622061646472657373206e6f7420736574000000000000006000830152602082019050919050565b600061162c601883611946565b91507f466f72776172646572206973206e6f74207472757374656400000000000000006000830152602082019050919050565b600061166c602083611946565b91507f697354727573746564466f727761726465723a2062616420726573706f6e73656000830152602082019050919050565b6080820160008201516116b560008501826116f4565b5060208201516116c860208501826116f4565b5060408201516116db60408501826116f4565b5060608201516116ee60608501826116f4565b50505050565b6116fd816119cb565b82525050565b61170c816119cb565b82525050565b600061171e82846114e6565b915081905092915050565b600060208201905061173e600083018461148f565b92915050565b60006020820190506117596000830184611471565b92915050565b6000604082019050818103600083015261177981856114ad565b9050611788602083018461149e565b9392505050565b60006020820190506117a46000830184611517565b92915050565b600060208201905081810360008301526117c48184611526565b905092915050565b600060208201905081810360008301526117e58161155f565b9050919050565b600060208201905081810360008301526118058161159f565b9050919050565b60006020820190508181036000830152611825816115df565b9050919050565b600060208201905081810360008301526118458161161f565b9050919050565b600060208201905081810360008301526118658161165f565b9050919050565b6000608082019050611881600083018461169f565b92915050565b600060208201905061189c6000830184611703565b92915050565b60006040820190506118b76000830185611703565b6118c46020830184611480565b9392505050565b60008235600160e0038336030381126118e357600080fd5b80830191505092915050565b6000823560016101000383360303811261190857600080fd5b80830191505092915050565b600081519050919050565b600081519050919050565b600082825260208201905092915050565b600081905092915050565b600082825260208201905092915050565b6000611962826119ab565b9050919050565b6000611974826119ab565b9050919050565b60008115159050919050565b600061199282611957565b9050919050565b60006119a482611957565b9050919050565b600073ffffffffffffffffffffffffffffffffffffffff82169050919050565b6000819050919050565b60006119e082611a0b565b9050919050565b60006119f2826119f9565b9050919050565b6000611a04826119ab565b9050919050565b6000611a1682611a1d565b9050919050565b6000611a28826119ab565b9050919050565b60005b83811015611a4d578082015181840152602081019050611a32565b83811115611a5c576000848401525b50505050565b6000601f19601f8301169050919050565b611a7c81611957565b8114611a8757600080fd5b50565b611a9381611969565b8114611a9e57600080fd5b50565b611aaa8161197b565b8114611ab557600080fd5b50565b611ac181611987565b8114611acc57600080fd5b50565b611ad881611999565b8114611ae357600080fd5b50565b611aef816119cb565b8114611afa57600080fd5b5056fe322e322e302b6f70656e67736e2e61636365707465766572797468696e672e697061796d61737465724f776e61626c653a206e6577206f776e657220697320746865207a65726f2061646472657373a2646970667358221220914e0db0bbb53fdeb3d6ee14bfe12fdcab6746a423d987b2ff8c07b56112ec4264736f6c63430007060033",
  "immutableReferences": {},
  "source": "//SPDX-License-Identifier: MIT\npragma solidity ^0.7.6;\npragma experimental ABIEncoderV2;\n\nimport \"@opengsn/contracts/src/BasePaymaster.sol\";\n\n// accept everything.\n// this paymaster accepts any request.\n//\n// NOTE: Do NOT use this contract on a mainnet: it accepts anything, so anyone can \"grief\" it and drain its account\n\ncontract AcceptEverythingPaymaster is BasePaymaster {\n\n    function versionPaymaster() external view override virtual returns (string memory){\n        return \"2.2.0+opengsn.accepteverything.ipaymaster\";\n    }\n\n    function preRelayedCall(\n        GsnTypes.RelayRequest calldata relayRequest,\n        bytes calldata signature,\n        bytes calldata approvalData,\n        uint256 maxPossibleGas\n    )\n    external\n    override\n    virtual\n    returns (bytes memory context, bool revertOnRecipientRevert) {\n        (relayRequest, signature, approvalData, maxPossibleGas);\n        return (\"\", false);\n    }\n\n    function postRelayedCall(\n        bytes calldata context,\n        bool success,\n        uint256 gasUseWithoutPost,\n        GsnTypes.RelayData calldata relayData\n    ) external override virtual {\n        (context, success, gasUseWithoutPost, relayData);\n    }\n\n}\n",
  "sourcePath": "@opengsn\\paymasters\\contracts\\AcceptEverythingPaymaster.sol",
  "compiler": {
    "name": "solc",
    "version": "0.7.6+commit.7338295f.Emscripten.clang"
  },
  "schemaVersion": "3.4.3",
  "updatedAt": "2021-10-14T11:37:48.207Z",
  "devdoc": {
    "kind": "dev",
    "methods": {
      "owner()": {
        "details": "Returns the address of the current owner."
      },
      "postRelayedCall(bytes,bool,uint256,(uint256,uint256,uint256,address,address,address,bytes,uint256))": {
        "params": {
          "context": "- the call context, as returned by the preRelayedCall",
          "gasUseWithoutPost": "- the actual amount of gas used by the entire transaction, EXCEPT        the gas used by the postRelayedCall itself.",
          "relayData": "- the relay params of the request. can be used by relayHub.calculateCharge() Revert in this functions causes a revert of the client's relayed call (and preRelayedCall(), but the Paymaster is still committed to pay the relay for the entire transaction.",
          "success": "- true if the relayed call succeeded, false if it reverted"
        }
      },
      "preRelayedCall(((address,address,uint256,uint256,uint256,bytes,uint256),(uint256,uint256,uint256,address,address,address,bytes,uint256)),bytes,bytes,uint256)": {
        "params": {
          "approvalData": "- extra dapp-specific data (e.g. signature from trusted party)",
          "maxPossibleGas": "- based on values returned from {@link getGasAndDataLimits},         the RelayHub will calculate the maximum possible amount of gas the user may be charged for.         In order to convert this value to wei, the Paymaster has to call \"relayHub.calculateCharge()\"  return:      a context to be passed to postRelayedCall      rejectOnRecipientRevert - TRUE if paymaster want to reject the TX if the recipient reverts.          FALSE means that rejects by the recipient will be completed on chain, and paid by the paymaster.          (note that in the latter case, the preRelayedCall and postRelayedCall are not reverted).",
          "relayRequest": "- the full relay request structure",
          "signature": "- user's EIP712-compatible signature of the {@link relayRequest}.              Note that in most cases the paymaster shouldn't try use it at all. It is always checked              by the forwarder immediately after preRelayedCall returns."
        }
      },
      "renounceOwnership()": {
        "details": "Leaves the contract without owner. It will not be possible to call `onlyOwner` functions anymore. Can only be called by the current owner. NOTE: Renouncing ownership will leave the contract without an owner, thereby removing any functionality that is only available to the owner."
      },
      "transferOwnership(address)": {
        "details": "Transfers ownership of the contract to a new account (`newOwner`). Can only be called by the current owner."
      }
    },
    "version": 1
  },
  "userdoc": {
    "kind": "user",
    "methods": {
      "getGasAndDataLimits()": {
        "notice": "Return the Gas Limits and msg.data max size constants used by the Paymaster."
      },
      "getHubAddr()": {
        "notice": "return the relayHub of this contract."
      },
      "getRelayHubDeposit()": {
        "notice": "check current deposit on relay hub."
      },
      "postRelayedCall(bytes,bool,uint256,(uint256,uint256,uint256,address,address,address,bytes,uint256))": {
        "notice": "This method is called after the actual relayed function call. It may be used to record the transaction (e.g. charge the caller by some contract logic) for this call. MUST be protected with relayHubOnly() in case it modifies state."
      },
      "preRelayedCall(((address,address,uint256,uint256,uint256,bytes,uint256),(uint256,uint256,uint256,address,address,address,bytes,uint256)),bytes,bytes,uint256)": {
        "notice": "Called by Relay (and RelayHub), to validate if the paymaster agrees to pay for this call. MUST be protected with relayHubOnly() in case it modifies state. The Paymaster rejects by the following \"revert\" operations  - preRelayedCall() method reverts  - the forwarder reverts because of nonce or signature error  - the paymaster returned \"rejectOnRecipientRevert\", and the recipient contract reverted. In any of the above cases, all paymaster calls (and recipient call) are reverted. In any other case, the paymaster agrees to pay for the gas cost of the transaction (note  that this includes also postRelayedCall revert) The rejectOnRecipientRevert flag means the Paymaster \"delegate\" the rejection to the recipient  code.  It also means the Paymaster trust the recipient to reject fast: both preRelayedCall,  forwarder check and receipient checks must fit into the GasLimits.acceptanceBudget,  otherwise the TX is paid by the Paymaster."
      },
      "withdrawRelayHubDepositTo(uint256,address)": {
        "notice": "withdraw deposit from relayHub"
      }
    },
    "version": 1
  }
}