{
  "contractName": "RelayHub",
  "abi": [
    {
      "inputs": [
        {
          "internalType": "contract IStakeManager",
          "name": "_stakeManager",
          "type": "address"
        },
        {
          "internalType": "address",
          "name": "_penalizer",
          "type": "address"
        },
        {
          "internalType": "uint256",
          "name": "_maxWorkerCount",
          "type": "uint256"
        },
        {
          "internalType": "uint256",
          "name": "_gasReserve",
          "type": "uint256"
        },
        {
          "internalType": "uint256",
          "name": "_postOverhead",
          "type": "uint256"
        },
        {
          "internalType": "uint256",
          "name": "_gasOverhead",
          "type": "uint256"
        },
        {
          "internalType": "uint256",
          "name": "_maximumRecipientDeposit",
          "type": "uint256"
        },
        {
          "internalType": "uint256",
          "name": "_minimumUnstakeDelay",
          "type": "uint256"
        },
        {
          "internalType": "uint256",
          "name": "_minimumStake",
          "type": "uint256"
        },
        {
          "internalType": "uint256",
          "name": "_dataGasCostPerByte",
          "type": "uint256"
        },
        {
          "internalType": "uint256",
          "name": "_externalCallDataCostOverhead",
          "type": "uint256"
        }
      ],
      "stateMutability": "nonpayable",
      "type": "constructor"
    },
    {
      "anonymous": false,
      "inputs": [
        {
          "indexed": true,
          "internalType": "address",
          "name": "paymaster",
          "type": "address"
        },
        {
          "indexed": true,
          "internalType": "address",
          "name": "from",
          "type": "address"
        },
        {
          "indexed": false,
          "internalType": "uint256",
          "name": "amount",
          "type": "uint256"
        }
      ],
      "name": "Deposited",
      "type": "event"
    },
    {
      "anonymous": false,
      "inputs": [
        {
          "indexed": false,
          "internalType": "uint256",
          "name": "fromBlock",
          "type": "uint256"
        }
      ],
      "name": "HubDeprecated",
      "type": "event"
    },
    {
      "anonymous": false,
      "inputs": [
        {
          "indexed": true,
          "internalType": "address",
          "name": "previousOwner",
          "type": "address"
        },
        {
          "indexed": true,
          "internalType": "address",
          "name": "newOwner",
          "type": "address"
        }
      ],
      "name": "OwnershipTransferred",
      "type": "event"
    },
    {
      "anonymous": false,
      "inputs": [
        {
          "components": [
            {
              "internalType": "uint256",
              "name": "maxWorkerCount",
              "type": "uint256"
            },
            {
              "internalType": "uint256",
              "name": "gasReserve",
              "type": "uint256"
            },
            {
              "internalType": "uint256",
              "name": "postOverhead",
              "type": "uint256"
            },
            {
              "internalType": "uint256",
              "name": "gasOverhead",
              "type": "uint256"
            },
            {
              "internalType": "uint256",
              "name": "maximumRecipientDeposit",
              "type": "uint256"
            },
            {
              "internalType": "uint256",
              "name": "minimumUnstakeDelay",
              "type": "uint256"
            },
            {
              "internalType": "uint256",
              "name": "minimumStake",
              "type": "uint256"
            },
            {
              "internalType": "uint256",
              "name": "dataGasCostPerByte",
              "type": "uint256"
            },
            {
              "internalType": "uint256",
              "name": "externalCallDataCostOverhead",
              "type": "uint256"
            }
          ],
          "indexed": false,
          "internalType": "struct IRelayHub.RelayHubConfig",
          "name": "config",
          "type": "tuple"
        }
      ],
      "name": "RelayHubConfigured",
      "type": "event"
    },
    {
      "anonymous": false,
      "inputs": [
        {
          "indexed": true,
          "internalType": "address",
          "name": "relayManager",
          "type": "address"
        },
        {
          "indexed": false,
          "internalType": "uint256",
          "name": "baseRelayFee",
          "type": "uint256"
        },
        {
          "indexed": false,
          "internalType": "uint256",
          "name": "pctRelayFee",
          "type": "uint256"
        },
        {
          "indexed": false,
          "internalType": "string",
          "name": "relayUrl",
          "type": "string"
        }
      ],
      "name": "RelayServerRegistered",
      "type": "event"
    },
    {
      "anonymous": false,
      "inputs": [
        {
          "indexed": true,
          "internalType": "address",
          "name": "relayManager",
          "type": "address"
        },
        {
          "indexed": false,
          "internalType": "address[]",
          "name": "newRelayWorkers",
          "type": "address[]"
        },
        {
          "indexed": false,
          "internalType": "uint256",
          "name": "workersCount",
          "type": "uint256"
        }
      ],
      "name": "RelayWorkersAdded",
      "type": "event"
    },
    {
      "anonymous": false,
      "inputs": [
        {
          "indexed": true,
          "internalType": "address",
          "name": "relayManager",
          "type": "address"
        },
        {
          "indexed": true,
          "internalType": "address",
          "name": "paymaster",
          "type": "address"
        },
        {
          "indexed": true,
          "internalType": "address",
          "name": "from",
          "type": "address"
        },
        {
          "indexed": false,
          "internalType": "address",
          "name": "to",
          "type": "address"
        },
        {
          "indexed": false,
          "internalType": "address",
          "name": "relayWorker",
          "type": "address"
        },
        {
          "indexed": false,
          "internalType": "bytes4",
          "name": "selector",
          "type": "bytes4"
        },
        {
          "indexed": false,
          "internalType": "uint256",
          "name": "innerGasUsed",
          "type": "uint256"
        },
        {
          "indexed": false,
          "internalType": "bytes",
          "name": "reason",
          "type": "bytes"
        }
      ],
      "name": "TransactionRejectedByPaymaster",
      "type": "event"
    },
    {
      "anonymous": false,
      "inputs": [
        {
          "indexed": true,
          "internalType": "address",
          "name": "relayManager",
          "type": "address"
        },
        {
          "indexed": true,
          "internalType": "address",
          "name": "relayWorker",
          "type": "address"
        },
        {
          "indexed": true,
          "internalType": "address",
          "name": "from",
          "type": "address"
        },
        {
          "indexed": false,
          "internalType": "address",
          "name": "to",
          "type": "address"
        },
        {
          "indexed": false,
          "internalType": "address",
          "name": "paymaster",
          "type": "address"
        },
        {
          "indexed": false,
          "internalType": "bytes4",
          "name": "selector",
          "type": "bytes4"
        },
        {
          "indexed": false,
          "internalType": "enum IRelayHub.RelayCallStatus",
          "name": "status",
          "type": "uint8"
        },
        {
          "indexed": false,
          "internalType": "uint256",
          "name": "charge",
          "type": "uint256"
        }
      ],
      "name": "TransactionRelayed",
      "type": "event"
    },
    {
      "anonymous": false,
      "inputs": [
        {
          "indexed": false,
          "internalType": "enum IRelayHub.RelayCallStatus",
          "name": "status",
          "type": "uint8"
        },
        {
          "indexed": false,
          "internalType": "bytes",
          "name": "returnValue",
          "type": "bytes"
        }
      ],
      "name": "TransactionResult",
      "type": "event"
    },
    {
      "anonymous": false,
      "inputs": [
        {
          "indexed": true,
          "internalType": "address",
          "name": "account",
          "type": "address"
        },
        {
          "indexed": true,
          "internalType": "address",
          "name": "dest",
          "type": "address"
        },
        {
          "indexed": false,
          "internalType": "uint256",
          "name": "amount",
          "type": "uint256"
        }
      ],
      "name": "Withdrawn",
      "type": "event"
    },
    {
      "inputs": [],
      "name": "G_NONZERO",
      "outputs": [
        {
          "internalType": "uint256",
          "name": "",
          "type": "uint256"
        }
      ],
      "stateMutability": "view",
      "type": "function"
    },
    {
      "inputs": [],
      "name": "deprecationBlock",
      "outputs": [
        {
          "internalType": "uint256",
          "name": "",
          "type": "uint256"
        }
      ],
      "stateMutability": "view",
      "type": "function"
    },
    {
      "inputs": [],
      "name": "owner",
      "outputs": [
        {
          "internalType": "address",
          "name": "",
          "type": "address"
        }
      ],
      "stateMutability": "view",
      "type": "function"
    },
    {
      "inputs": [],
      "name": "penalizer",
      "outputs": [
        {
          "internalType": "address",
          "name": "",
          "type": "address"
        }
      ],
      "stateMutability": "view",
      "type": "function"
    },
    {
      "inputs": [],
      "name": "renounceOwnership",
      "outputs": [],
      "stateMutability": "nonpayable",
      "type": "function"
    },
    {
      "inputs": [],
      "name": "stakeManager",
      "outputs": [
        {
          "internalType": "contract IStakeManager",
          "name": "",
          "type": "address"
        }
      ],
      "stateMutability": "view",
      "type": "function"
    },
    {
      "inputs": [
        {
          "internalType": "address",
          "name": "newOwner",
          "type": "address"
        }
      ],
      "name": "transferOwnership",
      "outputs": [],
      "stateMutability": "nonpayable",
      "type": "function"
    },
    {
      "inputs": [],
      "name": "versionHub",
      "outputs": [
        {
          "internalType": "string",
          "name": "",
          "type": "string"
        }
      ],
      "stateMutability": "view",
      "type": "function"
    },
    {
      "inputs": [
        {
          "internalType": "address",
          "name": "",
          "type": "address"
        }
      ],
      "name": "workerCount",
      "outputs": [
        {
          "internalType": "uint256",
          "name": "",
          "type": "uint256"
        }
      ],
      "stateMutability": "view",
      "type": "function"
    },
    {
      "inputs": [
        {
          "internalType": "address",
          "name": "",
          "type": "address"
        }
      ],
      "name": "workerToManager",
      "outputs": [
        {
          "internalType": "address",
          "name": "",
          "type": "address"
        }
      ],
      "stateMutability": "view",
      "type": "function"
    },
    {
      "inputs": [],
      "name": "getConfiguration",
      "outputs": [
        {
          "components": [
            {
              "internalType": "uint256",
              "name": "maxWorkerCount",
              "type": "uint256"
            },
            {
              "internalType": "uint256",
              "name": "gasReserve",
              "type": "uint256"
            },
            {
              "internalType": "uint256",
              "name": "postOverhead",
              "type": "uint256"
            },
            {
              "internalType": "uint256",
              "name": "gasOverhead",
              "type": "uint256"
            },
            {
              "internalType": "uint256",
              "name": "maximumRecipientDeposit",
              "type": "uint256"
            },
            {
              "internalType": "uint256",
              "name": "minimumUnstakeDelay",
              "type": "uint256"
            },
            {
              "internalType": "uint256",
              "name": "minimumStake",
              "type": "uint256"
            },
            {
              "internalType": "uint256",
              "name": "dataGasCostPerByte",
              "type": "uint256"
            },
            {
              "internalType": "uint256",
              "name": "externalCallDataCostOverhead",
              "type": "uint256"
            }
          ],
          "internalType": "struct IRelayHub.RelayHubConfig",
          "name": "",
          "type": "tuple"
        }
      ],
      "stateMutability": "view",
      "type": "function"
    },
    {
      "inputs": [
        {
          "components": [
            {
              "internalType": "uint256",
              "name": "maxWorkerCount",
              "type": "uint256"
            },
            {
              "internalType": "uint256",
              "name": "gasReserve",
              "type": "uint256"
            },
            {
              "internalType": "uint256",
              "name": "postOverhead",
              "type": "uint256"
            },
            {
              "internalType": "uint256",
              "name": "gasOverhead",
              "type": "uint256"
            },
            {
              "internalType": "uint256",
              "name": "maximumRecipientDeposit",
              "type": "uint256"
            },
            {
              "internalType": "uint256",
              "name": "minimumUnstakeDelay",
              "type": "uint256"
            },
            {
              "internalType": "uint256",
              "name": "minimumStake",
              "type": "uint256"
            },
            {
              "internalType": "uint256",
              "name": "dataGasCostPerByte",
              "type": "uint256"
            },
            {
              "internalType": "uint256",
              "name": "externalCallDataCostOverhead",
              "type": "uint256"
            }
          ],
          "internalType": "struct IRelayHub.RelayHubConfig",
          "name": "_config",
          "type": "tuple"
        }
      ],
      "name": "setConfiguration",
      "outputs": [],
      "stateMutability": "nonpayable",
      "type": "function"
    },
    {
      "inputs": [
        {
          "internalType": "uint256",
          "name": "baseRelayFee",
          "type": "uint256"
        },
        {
          "internalType": "uint256",
          "name": "pctRelayFee",
          "type": "uint256"
        },
        {
          "internalType": "string",
          "name": "url",
          "type": "string"
        }
      ],
      "name": "registerRelayServer",
      "outputs": [],
      "stateMutability": "nonpayable",
      "type": "function"
    },
    {
      "inputs": [
        {
          "internalType": "address[]",
          "name": "newRelayWorkers",
          "type": "address[]"
        }
      ],
      "name": "addRelayWorkers",
      "outputs": [],
      "stateMutability": "nonpayable",
      "type": "function"
    },
    {
      "inputs": [
        {
          "internalType": "address",
          "name": "target",
          "type": "address"
        }
      ],
      "name": "depositFor",
      "outputs": [],
      "stateMutability": "payable",
      "type": "function"
    },
    {
      "inputs": [
        {
          "internalType": "address",
          "name": "target",
          "type": "address"
        }
      ],
      "name": "balanceOf",
      "outputs": [
        {
          "internalType": "uint256",
          "name": "",
          "type": "uint256"
        }
      ],
      "stateMutability": "view",
      "type": "function"
    },
    {
      "inputs": [
        {
          "internalType": "uint256",
          "name": "amount",
          "type": "uint256"
        },
        {
          "internalType": "address payable",
          "name": "dest",
          "type": "address"
        }
      ],
      "name": "withdraw",
      "outputs": [],
      "stateMutability": "nonpayable",
      "type": "function"
    },
    {
      "inputs": [
        {
          "internalType": "uint256",
          "name": "length",
          "type": "uint256"
        }
      ],
      "name": "calldataGasCost",
      "outputs": [
        {
          "internalType": "uint256",
          "name": "",
          "type": "uint256"
        }
      ],
      "stateMutability": "view",
      "type": "function"
    },
    {
      "inputs": [
        {
          "internalType": "uint256",
          "name": "maxAcceptanceBudget",
          "type": "uint256"
        },
        {
          "components": [
            {
              "components": [
                {
                  "internalType": "address",
                  "name": "from",
                  "type": "address"
                },
                {
                  "internalType": "address",
                  "name": "to",
                  "type": "address"
                },
                {
                  "internalType": "uint256",
                  "name": "value",
                  "type": "uint256"
                },
                {
                  "internalType": "uint256",
                  "name": "gas",
                  "type": "uint256"
                },
                {
                  "internalType": "uint256",
                  "name": "nonce",
                  "type": "uint256"
                },
                {
                  "internalType": "bytes",
                  "name": "data",
                  "type": "bytes"
                },
                {
                  "internalType": "uint256",
                  "name": "validUntil",
                  "type": "uint256"
                }
              ],
              "internalType": "struct IForwarder.ForwardRequest",
              "name": "request",
              "type": "tuple"
            },
            {
              "components": [
                {
                  "internalType": "uint256",
                  "name": "gasPrice",
                  "type": "uint256"
                },
                {
                  "internalType": "uint256",
                  "name": "pctRelayFee",
                  "type": "uint256"
                },
                {
                  "internalType": "uint256",
                  "name": "baseRelayFee",
                  "type": "uint256"
                },
                {
                  "internalType": "address",
                  "name": "relayWorker",
                  "type": "address"
                },
                {
                  "internalType": "address",
                  "name": "paymaster",
                  "type": "address"
                },
                {
                  "internalType": "address",
                  "name": "forwarder",
                  "type": "address"
                },
                {
                  "internalType": "bytes",
                  "name": "paymasterData",
                  "type": "bytes"
                },
                {
                  "internalType": "uint256",
                  "name": "clientId",
                  "type": "uint256"
                }
              ],
              "internalType": "struct GsnTypes.RelayData",
              "name": "relayData",
              "type": "tuple"
            }
          ],
          "internalType": "struct GsnTypes.RelayRequest",
          "name": "relayRequest",
          "type": "tuple"
        },
        {
          "internalType": "bytes",
          "name": "signature",
          "type": "bytes"
        },
        {
          "internalType": "bytes",
          "name": "approvalData",
          "type": "bytes"
        },
        {
          "internalType": "uint256",
          "name": "externalGasLimit",
          "type": "uint256"
        }
      ],
      "name": "relayCall",
      "outputs": [
        {
          "internalType": "bool",
          "name": "paymasterAccepted",
          "type": "bool"
        },
        {
          "internalType": "bytes",
          "name": "returnValue",
          "type": "bytes"
        }
      ],
      "stateMutability": "nonpayable",
      "type": "function"
    },
    {
      "inputs": [
        {
          "components": [
            {
              "components": [
                {
                  "internalType": "address",
                  "name": "from",
                  "type": "address"
                },
                {
                  "internalType": "address",
                  "name": "to",
                  "type": "address"
                },
                {
                  "internalType": "uint256",
                  "name": "value",
                  "type": "uint256"
                },
                {
                  "internalType": "uint256",
                  "name": "gas",
                  "type": "uint256"
                },
                {
                  "internalType": "uint256",
                  "name": "nonce",
                  "type": "uint256"
                },
                {
                  "internalType": "bytes",
                  "name": "data",
                  "type": "bytes"
                },
                {
                  "internalType": "uint256",
                  "name": "validUntil",
                  "type": "uint256"
                }
              ],
              "internalType": "struct IForwarder.ForwardRequest",
              "name": "request",
              "type": "tuple"
            },
            {
              "components": [
                {
                  "internalType": "uint256",
                  "name": "gasPrice",
                  "type": "uint256"
                },
                {
                  "internalType": "uint256",
                  "name": "pctRelayFee",
                  "type": "uint256"
                },
                {
                  "internalType": "uint256",
                  "name": "baseRelayFee",
                  "type": "uint256"
                },
                {
                  "internalType": "address",
                  "name": "relayWorker",
                  "type": "address"
                },
                {
                  "internalType": "address",
                  "name": "paymaster",
                  "type": "address"
                },
                {
                  "internalType": "address",
                  "name": "forwarder",
                  "type": "address"
                },
                {
                  "internalType": "bytes",
                  "name": "paymasterData",
                  "type": "bytes"
                },
                {
                  "internalType": "uint256",
                  "name": "clientId",
                  "type": "uint256"
                }
              ],
              "internalType": "struct GsnTypes.RelayData",
              "name": "relayData",
              "type": "tuple"
            }
          ],
          "internalType": "struct GsnTypes.RelayRequest",
          "name": "relayRequest",
          "type": "tuple"
        },
        {
          "internalType": "bytes",
          "name": "signature",
          "type": "bytes"
        },
        {
          "internalType": "bytes",
          "name": "approvalData",
          "type": "bytes"
        },
        {
          "components": [
            {
              "internalType": "uint256",
              "name": "acceptanceBudget",
              "type": "uint256"
            },
            {
              "internalType": "uint256",
              "name": "preRelayedCallGasLimit",
              "type": "uint256"
            },
            {
              "internalType": "uint256",
              "name": "postRelayedCallGasLimit",
              "type": "uint256"
            },
            {
              "internalType": "uint256",
              "name": "calldataSizeLimit",
              "type": "uint256"
            }
          ],
          "internalType": "struct IPaymaster.GasAndDataLimits",
          "name": "gasAndDataLimits",
          "type": "tuple"
        },
        {
          "internalType": "uint256",
          "name": "totalInitialGas",
          "type": "uint256"
        },
        {
          "internalType": "uint256",
          "name": "maxPossibleGas",
          "type": "uint256"
        }
      ],
      "name": "innerRelayCall",
      "outputs": [
        {
          "internalType": "enum IRelayHub.RelayCallStatus",
          "name": "",
          "type": "uint8"
        },
        {
          "internalType": "bytes",
          "name": "",
          "type": "bytes"
        }
      ],
      "stateMutability": "nonpayable",
      "type": "function"
    },
    {
      "inputs": [
        {
          "internalType": "uint256",
          "name": "gasUsed",
          "type": "uint256"
        },
        {
          "components": [
            {
              "internalType": "uint256",
              "name": "gasPrice",
              "type": "uint256"
            },
            {
              "internalType": "uint256",
              "name": "pctRelayFee",
              "type": "uint256"
            },
            {
              "internalType": "uint256",
              "name": "baseRelayFee",
              "type": "uint256"
            },
            {
              "internalType": "address",
              "name": "relayWorker",
              "type": "address"
            },
            {
              "internalType": "address",
              "name": "paymaster",
              "type": "address"
            },
            {
              "internalType": "address",
              "name": "forwarder",
              "type": "address"
            },
            {
              "internalType": "bytes",
              "name": "paymasterData",
              "type": "bytes"
            },
            {
              "internalType": "uint256",
              "name": "clientId",
              "type": "uint256"
            }
          ],
          "internalType": "struct GsnTypes.RelayData",
          "name": "relayData",
          "type": "tuple"
        }
      ],
      "name": "calculateCharge",
      "outputs": [
        {
          "internalType": "uint256",
          "name": "",
          "type": "uint256"
        }
      ],
      "stateMutability": "view",
      "type": "function"
    },
    {
      "inputs": [
        {
          "internalType": "address",
          "name": "relayManager",
          "type": "address"
        }
      ],
      "name": "isRelayManagerStaked",
      "outputs": [
        {
          "internalType": "bool",
          "name": "",
          "type": "bool"
        }
      ],
      "stateMutability": "view",
      "type": "function"
    },
    {
      "inputs": [
        {
          "internalType": "uint256",
          "name": "fromBlock",
          "type": "uint256"
        }
      ],
      "name": "deprecateHub",
      "outputs": [],
      "stateMutability": "nonpayable",
      "type": "function"
    },
    {
      "inputs": [],
      "name": "isDeprecated",
      "outputs": [
        {
          "internalType": "bool",
          "name": "",
          "type": "bool"
        }
      ],
      "stateMutability": "view",
      "type": "function"
    },
    {
      "inputs": [
        {
          "internalType": "address",
          "name": "relayWorker",
          "type": "address"
        },
        {
          "internalType": "address payable",
          "name": "beneficiary",
          "type": "address"
        }
      ],
      "name": "penalize",
      "outputs": [],
      "stateMutability": "nonpayable",
      "type": "function"
    }
  ],
  "bytecode": "0x60c06040526040518060400160405280601b81526020017f322e322e302b6f70656e67736e2e6875622e6972656c617968756200000000008152506001908051906020019062000051929190620003b7565b507fffffffffffffffffffffffffffffffffffffffffffffffffffffffffffffffff600e553480156200008357600080fd5b5060405162006628380380620066288339818101604052810190620000a99190620004b2565b6000620000bb6200022860201b60201c565b9050806000806101000a81548173ffffffffffffffffffffffffffffffffffffffff021916908373ffffffffffffffffffffffffffffffffffffffff1602179055508073ffffffffffffffffffffffffffffffffffffffff16600073ffffffffffffffffffffffffffffffffffffffff167f8be0079c531659141344cd1fd0a4f28419497f9722a3daafe3b4186f6b6457e060405160405180910390a3508a73ffffffffffffffffffffffffffffffffffffffff1660808173ffffffffffffffffffffffffffffffffffffffff1660601b815250508973ffffffffffffffffffffffffffffffffffffffff1660a08173ffffffffffffffffffffffffffffffffffffffff1660601b81525050620002176040518061012001604052808b81526020018a8152602001898152602001888152602001878152602001868152602001858152602001848152602001838152506200023060201b60201c565b5050505050505050505050620007fc565b600033905090565b620002406200022860201b60201c565b73ffffffffffffffffffffffffffffffffffffffff16620002666200038e60201b60201c565b73ffffffffffffffffffffffffffffffffffffffff1614620002f0576040517f08c379a00000000000000000000000000000000000000000000000000000000081526004018080602001828103825260208152602001807f4f776e61626c653a2063616c6c6572206973206e6f7420746865206f776e657281525060200191505060405180910390fd5b806002600082015181600001556020820151816001015560408201518160020155606082015181600301556080820151816004015560a0820151816005015560c0820151816006015560e0820151816007015561010082015181600801559050507f918ee002eb112844e457f37ea6b320c5572bc73957ebb0423ffcfb03d7b939d7600260405162000383919062000709565b60405180910390a150565b60008060009054906101000a900473ffffffffffffffffffffffffffffffffffffffff16905090565b828054600181600116156101000203166002900490600052602060002090601f016020900481019282620003ef57600085556200043b565b82601f106200040a57805160ff19168380011785556200043b565b828001600101855582156200043b579182015b828111156200043a5782518255916020019190600101906200041d565b5b5090506200044a91906200044e565b5090565b5b80821115620004695760008160009055506001016200044f565b5090565b6000815190506200047e81620007ae565b92915050565b6000815190506200049581620007c8565b92915050565b600081519050620004ac81620007e2565b92915050565b60008060008060008060008060008060006101608c8e031215620004d557600080fd5b6000620004e58e828f0162000484565b9b50506020620004f88e828f016200046d565b9a505060406200050b8e828f016200049b565b99505060606200051e8e828f016200049b565b9850506080620005318e828f016200049b565b97505060a0620005448e828f016200049b565b96505060c0620005578e828f016200049b565b95505060e06200056a8e828f016200049b565b9450506101006200057e8e828f016200049b565b935050610120620005928e828f016200049b565b925050610140620005a68e828f016200049b565b9150509295989b509295989b9093969950565b61012082016000808301549050620005d18162000783565b620005e06000860182620006f8565b5060018301549050620005f38162000783565b620006026020860182620006f8565b5060028301549050620006158162000783565b620006246040860182620006f8565b5060038301549050620006378162000783565b620006466060860182620006f8565b5060048301549050620006598162000783565b620006686080860182620006f8565b50600583015490506200067b8162000783565b6200068a60a0860182620006f8565b50600683015490506200069d8162000783565b620006ac60c0860182620006f8565b5060078301549050620006bf8162000783565b620006ce60e0860182620006f8565b5060088301549050620006e18162000783565b620006f1610100860182620006f8565b5050505050565b620007038162000779565b82525050565b600061012082019050620007216000830184620005b9565b92915050565b6000819050919050565b60006200073e8262000759565b9050919050565b6000620007528262000731565b9050919050565b600073ffffffffffffffffffffffffffffffffffffffff82169050919050565b6000819050919050565b60006200079a6200079483620007a1565b62000727565b9050919050565b60008160001c9050919050565b620007b98162000731565b8114620007c557600080fd5b50565b620007d38162000745565b8114620007df57600080fd5b50565b620007ed8162000779565b8114620007f957600080fd5b50565b60805160601c60a05160601c615dee6200083a6000398061220352806124565250806112df5280611a78528061260252806126ad5250615dee6000f3fe6080604052600436106101655760003560e01c80638da5cb5b116100d1578063c651bce81161008a578063d6a71c0d11610064578063d6a71c0d14610556578063d904c73214610581578063ebcd31ac146105ac578063f2fde38b146105d557610165565b8063c651bce8146104c5578063c7178230146104ee578063ca998f561461051957610165565b80638da5cb5b146103c45780638e53548b146103ef578063aa67c9191461042c578063af595dfc14610448578063c2da078614610471578063c4775a681461049a57610165565b80636bd50cef116101235780636bd50cef146102b357806370a08231146102de578063715018a61461031b578063746d300c146103325780637542ff951461037057806383b718711461039b57610165565b8062f714ce1461016a5780630dd3eded1461019357806310c45431146101be578063194ac307146101fc57806326595b9d146102395780632ad311b514610276575b600080fd5b34801561017657600080fd5b50610191600480360381019061018c9190613e53565b6105fe565b005b34801561019f57600080fd5b506101a86107cb565b6040516101b591906157ad565b60405180910390f35b3480156101ca57600080fd5b506101e560048036038101906101e09190613ee3565b6107d0565b6040516101f3929190615166565b60405180910390f35b34801561020857600080fd5b50610223600480360381019061021e9190613b02565b6112a2565b60405161023091906157ad565b60405180910390f35b34801561024557600080fd5b50610260600480360381019061025b9190613e2a565b6112ba565b60405161026d91906157ad565b60405180910390f35b34801561028257600080fd5b5061029d60048036038101906102989190613b02565b6112db565b6040516102aa919061514b565b60405180910390f35b3480156102bf57600080fd5b506102c861139d565b6040516102d5919061569b565b60405180910390f35b3480156102ea57600080fd5b5061030560048036038101906103009190613b02565b611412565b60405161031291906157ad565b60405180910390f35b34801561032757600080fd5b5061033061145b565b005b34801561033e57600080fd5b5061035960048036038101906103549190613d24565b6115c8565b6040516103679291906152ff565b60405180910390f35b34801561037c57600080fd5b50610385611a76565b60405161039291906152e4565b60405180910390f35b3480156103a757600080fd5b506103c260048036038101906103bd9190613fab565b611a9a565b005b3480156103d057600080fd5b506103d9611bc4565b6040516103e69190614fd5565b60405180910390f35b3480156103fb57600080fd5b5061041660048036038101906104119190613e8f565b611bed565b60405161042391906157ad565b60405180910390f35b61044660048036038101906104419190613b02565b611c60565b005b34801561045457600080fd5b5061046f600480360381019061046a9190613e2a565b611dab565b005b34801561047d57600080fd5b5061049860048036038101906104939190613b67565b611edf565b005b3480156104a657600080fd5b506104af612201565b6040516104bc9190614fd5565b60405180910390f35b3480156104d157600080fd5b506104ec60048036038101906104e79190613cfa565b612225565b005b3480156104fa57600080fd5b50610503612370565b604051610510919061514b565b60405180910390f35b34801561052557600080fd5b50610540600480360381019061053b9190613b02565b61237d565b60405161054d9190614fd5565b60405180910390f35b34801561056257600080fd5b5061056b6123b0565b60405161057891906157ad565b60405180910390f35b34801561058d57600080fd5b506105966123b6565b6040516105a3919061532f565b60405180910390f35b3480156105b857600080fd5b506105d360048036038101906105ce9190613b2b565b612454565b005b3480156105e157600080fd5b506105fc60048036038101906105f79190613b02565b612744565b005b600033905082600d60008373ffffffffffffffffffffffffffffffffffffffff1673ffffffffffffffffffffffffffffffffffffffff168152602001908152602001600020541015610685576040517f08c379a000000000000000000000000000000000000000000000000000000000815260040161067c90615571565b60405180910390fd5b6106d783600d60008473ffffffffffffffffffffffffffffffffffffffff1673ffffffffffffffffffffffffffffffffffffffff1681526020019081526020016000205461293690919063ffffffff16565b600d60008373ffffffffffffffffffffffffffffffffffffffff1673ffffffffffffffffffffffffffffffffffffffff168152602001908152602001600020819055508173ffffffffffffffffffffffffffffffffffffffff166108fc849081150290604051600060405180830381858888f19350505050158015610760573d6000803e3d6000fd5b508173ffffffffffffffffffffffffffffffffffffffff168173ffffffffffffffffffffffffffffffffffffffff167fd1c19fbcd4551a5edfb66d43d2e337c04837afda3482b42bdf569a8fccdae5fb856040516107be91906157ad565b60405180910390a3505050565b601081565b600060606107dc6135ab565b5a8160400181815250506107ee612370565b1561082e576040517f08c379a000000000000000000000000000000000000000000000000000000000815260040161082590615371565b60405180910390fd5b6004898060000190610840919061585f565b8060a0019061084f9190615808565b9050101561086157600060e01b6108ce565b6108cd898060000190610874919061585f565b8060a001906108839190615808565b8080601f016020809104026020016040519081016040528093929190818152602001838380828437600081840152601f19601f8201169050808301925050505050505060006129b9565b5b81602001907bffffffffffffffffffffffffffffffffffffffffffffffffffffffff191690817bffffffffffffffffffffffffffffffffffffffffffffffffffffffff1916815250503273ffffffffffffffffffffffffffffffffffffffff163373ffffffffffffffffffffffffffffffffffffffff1614610985576040517f08c379a000000000000000000000000000000000000000000000000000000000815260040161097c90615491565b60405180910390fd5b600b60003373ffffffffffffffffffffffffffffffffffffffff1673ffffffffffffffffffffffffffffffffffffffff16815260200190815260200160002060009054906101000a900473ffffffffffffffffffffffffffffffffffffffff1681610160019073ffffffffffffffffffffffffffffffffffffffff16908173ffffffffffffffffffffffffffffffffffffffff1681525050600073ffffffffffffffffffffffffffffffffffffffff1681610160015173ffffffffffffffffffffffffffffffffffffffff161415610a92576040517f08c379a0000000000000000000000000000000000000000000000000000000008152600401610a8990615611565b60405180910390fd5b3373ffffffffffffffffffffffffffffffffffffffff16898060200190610ab99190615883565b6060016020810190610acb9190613b02565b73ffffffffffffffffffffffffffffffffffffffff1614610b21576040517f08c379a0000000000000000000000000000000000000000000000000000000008152600401610b18906155b1565b60405180910390fd5b610b2f8161016001516112db565b610b6e576040517f08c379a0000000000000000000000000000000000000000000000000000000008152600401610b6590615471565b60405180910390fd5b3a898060200190610b7f9190615883565b600001351115610bc4576040517f08c379a0000000000000000000000000000000000000000000000000000000008152600401610bbb90615431565b60405180910390fd5b45841115610c07576040517f08c379a0000000000000000000000000000000000000000000000000000000008152600401610bfe90615351565b60405180910390fd5b610c178a8a836040015187612a69565b8260a0018361010001828152508290525050610c368989898989612df6565b60006002600101546040603f5a0281610c4b57fe5b040390505a8261012001818152505060006002800154600260030154878401010190506000803073ffffffffffffffffffffffffffffffffffffffff168463746d300c60e01b8f8f8f8f8f8c60a001515a8c038e6101000151604051602401610cbb9897969594939291906156d3565b604051602081830303815290604052907bffffffffffffffffffffffffffffffffffffffffffffffffffffffff19166020820180517bffffffffffffffffffffffffffffffffffffffffffffffffffffffff8381831617835250505050604051610d259190614f55565b60006040518083038160008787f1925050503d8060008114610d63576040519150601f19603f3d011682016040523d82523d6000602084013e610d68565b606091505b5091509150818560000190151590811515815250505a856101200151038560e001818152505080806020019051810190610da29190613c7d565b8660c00187608001829052826006811115610db957fe5b6006811115610dc457fe5b815250505060008560800151511115610e19577fa1478a4242848419db824250a0dddc645dca0d6a9b12ab1fd79b00145a0ba98e8560c001518660800151604051610e109291906152ff565b60405180910390a15b50505050610e2a60003690506112ba565b816101800181815250508060000151610fe75760026006811115610e4a57fe5b8160c001516006811115610e5a57fe5b1480610ed45750610e818161018001518260a0015160000151612ef890919063ffffffff16565b8160e0015111158015610ed3575060036006811115610e9c57fe5b8160c001516006811115610eac57fe5b1480610ed2575060046006811115610ec057fe5b8160c001516006811115610ed057fe5b145b5b5b15610fe65760009250888060000190610eed919061585f565b6000016020810190610eff9190613b02565b73ffffffffffffffffffffffffffffffffffffffff16898060200190610f259190615883565b6080016020810190610f379190613b02565b73ffffffffffffffffffffffffffffffffffffffff1682610160015173ffffffffffffffffffffffffffffffffffffffff167fddb88484d11f800b80fe63aa67488ec56ee001d85896d528912c5d850cbcd06a8c8060000190610f9a919061585f565b6020016020810190610fac9190613b02565b3386602001518760e001518860800151604051610fcd959493929190614ff0565b60405180910390a4600081608001519250925050611296565b5b60006002600301545a86030190506000611010828c806020019061100b9190615883565b611bed565b905061108581600d60008e806020019061102a9190615883565b608001602081019061103c9190613b02565b73ffffffffffffffffffffffffffffffffffffffff1673ffffffffffffffffffffffffffffffffffffffff1681526020019081526020016000205461293690919063ffffffff16565b600d60008d80602001906110999190615883565b60800160208101906110ab9190613b02565b73ffffffffffffffffffffffffffffffffffffffff1673ffffffffffffffffffffffffffffffffffffffff1681526020019081526020016000208190555061114081600d600086610160015173ffffffffffffffffffffffffffffffffffffffff1673ffffffffffffffffffffffffffffffffffffffff16815260200190815260200160002054612ef890919063ffffffff16565b600d600085610160015173ffffffffffffffffffffffffffffffffffffffff1673ffffffffffffffffffffffffffffffffffffffff168152602001908152602001600020819055508a8060000190611198919061585f565b60000160208101906111aa9190613b02565b73ffffffffffffffffffffffffffffffffffffffff163373ffffffffffffffffffffffffffffffffffffffff1684610160015173ffffffffffffffffffffffffffffffffffffffff167fc9aa709786a3d5fe2cc947abc1ba8cbb0f6decb57aa74b84eb7f558125fee4548e8060000190611224919061585f565b60200160208101906112369190613b02565b8f80602001906112469190615883565b60800160208101906112589190613b02565b88602001518960c0015188604051611274959493929190615081565b60405180910390a4600160405180602001604052806000815250945094505050505b97509795505050505050565b600c6020528060005260406000206000915090505481565b60006112d482600260070154612f8090919063ffffffff16565b9050919050565b60007f000000000000000000000000000000000000000000000000000000000000000073ffffffffffffffffffffffffffffffffffffffff16636de8dd4183306002600601546002600501546040518563ffffffff1660e01b815260040161134694939291906150d4565b60206040518083038186803b15801561135e57600080fd5b505afa158015611372573d6000803e3d6000fd5b505050506040513d601f19601f820116820180604052508101906113969190613bac565b9050919050565b6113a561365b565b6002604051806101200160405290816000820154815260200160018201548152602001600282015481526020016003820154815260200160048201548152602001600582015481526020016006820154815260200160078201548152602001600882015481525050905090565b6000600d60008373ffffffffffffffffffffffffffffffffffffffff1673ffffffffffffffffffffffffffffffffffffffff168152602001908152602001600020549050919050565b611463613006565b73ffffffffffffffffffffffffffffffffffffffff16611481611bc4565b73ffffffffffffffffffffffffffffffffffffffff161461150a576040517f08c379a00000000000000000000000000000000000000000000000000000000081526004018080602001828103825260208152602001807f4f776e61626c653a2063616c6c6572206973206e6f7420746865206f776e657281525060200191505060405180910390fd5b600073ffffffffffffffffffffffffffffffffffffffff1660008054906101000a900473ffffffffffffffffffffffffffffffffffffffff1673ffffffffffffffffffffffffffffffffffffffff167f8be0079c531659141344cd1fd0a4f28419497f9722a3daafe3b4186f6b6457e060405160405180910390a360008060006101000a81548173ffffffffffffffffffffffffffffffffffffffff021916908373ffffffffffffffffffffffffffffffffffffffff160217905550565b600060606115d46136a7565b3073ffffffffffffffffffffffffffffffffffffffff163373ffffffffffffffffffffffffffffffffffffffff1614611642576040517f08c379a000000000000000000000000000000000000000000000000000000000815260040161163990615411565b60405180910390fd5b600d60008c80602001906116569190615883565b60800160208101906116689190613b02565b73ffffffffffffffffffffffffffffffffffffffff1673ffffffffffffffffffffffffffffffffffffffff1681526020019081526020016000205481600001818152505062be5dd460e01b8b8b8b8b8b896040516024016116ce9695949392919061574f565b604051602081830303815290604052907bffffffffffffffffffffffffffffffffffffffffffffffffffffffff19166020820180517bffffffffffffffffffffffffffffffffffffffffffffffffffffffff83818316178352505050508160a00181905250600060608c80602001906117479190615883565b60800160208101906117599190613b02565b73ffffffffffffffffffffffffffffffffffffffff1688602001358460a001516040516117869190614f55565b60006040518083038160008787f1925050503d80600081146117c4576040519150601f19603f3d011682016040523d82523d6000602084013e6117c9565b606091505b508092508193505050816117ec576117e08161300e565b6117eb60028261301d565b5b808060200190518101906118009190613c29565b846080018560c00182151515158152508290525050505060006118248c8c8c613056565b8460400185606001829052821515151581525082935050505080611852576118516003836060015161301d565b5b8160c00151801561186557508160400151155b1561187a576118796004836060015161301d565b5b506376fa01c360e01b816080015182604001515a88038e80602001906118a09190615883565b6040516024016118b39493929190615291565b604051602081830303815290604052907bffffffffffffffffffffffffffffffffffffffffffffffffffffffff19166020820180517bffffffffffffffffffffffffffffffffffffffffffffffffffffffff83818316178352505050508160a001819052506000808c806020019061192b9190615883565b608001602081019061193d9190613b02565b73ffffffffffffffffffffffffffffffffffffffff1688604001358460a0015160405161196a9190614f55565b60006040518083038160008787f1925050503d80600081146119a8576040519150601f19603f3d011682016040523d82523d6000602084013e6119ad565b606091505b5091509150816119c3576119c260058261301d565b5b50508060000151600d60008d80602001906119de9190615883565b60800160208101906119f09190613b02565b73ffffffffffffffffffffffffffffffffffffffff1673ffffffffffffffffffffffffffffffffffffffff168152602001908152602001600020541015611a4c57611a4b60066040518060200160405280600081525061301d565b5b8060400151611a5c576001611a5f565b60005b816060015192509250509850989650505050505050565b7f000000000000000000000000000000000000000000000000000000000000000081565b6000339050611aa8816112db565b611ae7576040517f08c379a0000000000000000000000000000000000000000000000000000000008152600401611ade90615471565b60405180910390fd5b6000600c60008373ffffffffffffffffffffffffffffffffffffffff1673ffffffffffffffffffffffffffffffffffffffff1681526020019081526020016000205411611b69576040517f08c379a0000000000000000000000000000000000000000000000000000000008152600401611b60906154b1565b60405180910390fd5b8073ffffffffffffffffffffffffffffffffffffffff167f77f2d8afec4b9d82ffa0dea525320620292bd1067f575964994d5c4501479aed86868686604051611bb594939291906157c8565b60405180910390a25050505050565b60008060009054906101000a900473ffffffffffffffffffffffffffffffffffffffff16905090565b6000611c58611c456064611c37611c1260648760200135612ef890919063ffffffff16565b611c29876000013589612f8090919063ffffffff16565b612f8090919063ffffffff16565b61329a90919063ffffffff16565b8360400135612ef890919063ffffffff16565b905092915050565b6000349050600260040154811115611cad576040517f08c379a0000000000000000000000000000000000000000000000000000000008152600401611ca490615451565b60405180910390fd5b611cff81600d60008573ffffffffffffffffffffffffffffffffffffffff1673ffffffffffffffffffffffffffffffffffffffff16815260200190815260200160002054612ef890919063ffffffff16565b600d60008473ffffffffffffffffffffffffffffffffffffffff1673ffffffffffffffffffffffffffffffffffffffff168152602001908152602001600020819055503373ffffffffffffffffffffffffffffffffffffffff168273ffffffffffffffffffffffffffffffffffffffff167f8752a472e571a816aea92eec8dae9baf628e840f4929fbcc2d155e6233ff68a783604051611d9f91906157ad565b60405180910390a35050565b611db3613006565b73ffffffffffffffffffffffffffffffffffffffff16611dd1611bc4565b73ffffffffffffffffffffffffffffffffffffffff1614611e5a576040517f08c379a00000000000000000000000000000000000000000000000000000000081526004018080602001828103825260208152602001807f4f776e61626c653a2063616c6c6572206973206e6f7420746865206f776e657281525060200191505060405180910390fd5b43600e5411611e9e576040517f08c379a0000000000000000000000000000000000000000000000000000000008152600401611e95906153b1565b60405180910390fd5b80600e819055507f1c0aa0c666483fbf0cf795d9d646ea3552d1e3008162ba9ab1d6d6dfd8c6ec6b81604051611ed491906157ad565b60405180910390a150565b6000339050600083839050600c60008473ffffffffffffffffffffffffffffffffffffffff1673ffffffffffffffffffffffffffffffffffffffff1681526020019081526020016000205401905080600c60008473ffffffffffffffffffffffffffffffffffffffff1673ffffffffffffffffffffffffffffffffffffffff16815260200190815260200160002081905550600260000154811115611fb9576040517f08c379a0000000000000000000000000000000000000000000000000000000008152600401611fb090615531565b60405180910390fd5b611fc2826112db565b612001576040517f08c379a0000000000000000000000000000000000000000000000000000000008152600401611ff890615471565b60405180910390fd5b60005b848490508110156121a857600073ffffffffffffffffffffffffffffffffffffffff16600b600087878581811061203757fe5b905060200201602081019061204c9190613b02565b73ffffffffffffffffffffffffffffffffffffffff1673ffffffffffffffffffffffffffffffffffffffff16815260200190815260200160002060009054906101000a900473ffffffffffffffffffffffffffffffffffffffff1673ffffffffffffffffffffffffffffffffffffffff16146120fd576040517f08c379a00000000000000000000000000000000000000000000000000000000081526004016120f4906153d1565b60405180910390fd5b82600b600087878581811061210e57fe5b90506020020160208101906121239190613b02565b73ffffffffffffffffffffffffffffffffffffffff1673ffffffffffffffffffffffffffffffffffffffff16815260200190815260200160002060006101000a81548173ffffffffffffffffffffffffffffffffffffffff021916908373ffffffffffffffffffffffffffffffffffffffff1602179055508080600101915050612004565b508173ffffffffffffffffffffffffffffffffffffffff167febf4a9bffb39f7c5dbf3f65540183b9381ae226ac3d0a45b4cad484713bd4a288585846040516121f393929190615119565b60405180910390a250505050565b7f000000000000000000000000000000000000000000000000000000000000000081565b61222d613006565b73ffffffffffffffffffffffffffffffffffffffff1661224b611bc4565b73ffffffffffffffffffffffffffffffffffffffff16146122d4576040517f08c379a00000000000000000000000000000000000000000000000000000000081526004018080602001828103825260208152602001807f4f776e61626c653a2063616c6c6572206973206e6f7420746865206f776e657281525060200191505060405180910390fd5b806002600082015181600001556020820151816001015560408201518160020155606082015181600301556080820151816004015560a0820151816005015560c0820151816006015560e0820151816007015561010082015181600801559050507f918ee002eb112844e457f37ea6b320c5572bc73957ebb0423ffcfb03d7b939d7600260405161236591906156b7565b60405180910390a150565b6000600e54431015905090565b600b6020528060005260406000206000915054906101000a900473ffffffffffffffffffffffffffffffffffffffff1681565b600e5481565b60018054600181600116156101000203166002900480601f01602080910402602001604051908101604052809291908181526020018280546001816001161561010002031660029004801561244c5780601f106124215761010080835404028352916020019161244c565b820191906000526020600020905b81548152906001019060200180831161242f57829003601f168201915b505050505081565b7f000000000000000000000000000000000000000000000000000000000000000073ffffffffffffffffffffffffffffffffffffffff163373ffffffffffffffffffffffffffffffffffffffff16146124e2576040517f08c379a00000000000000000000000000000000000000000000000000000000081526004016124d9906154f1565b60405180910390fd5b6000600b60008473ffffffffffffffffffffffffffffffffffffffff1673ffffffffffffffffffffffffffffffffffffffff16815260200190815260200160002060009054906101000a900473ffffffffffffffffffffffffffffffffffffffff169050600073ffffffffffffffffffffffffffffffffffffffff168173ffffffffffffffffffffffffffffffffffffffff1614156125b6576040517f08c379a00000000000000000000000000000000000000000000000000000000081526004016125ad90615611565b60405180910390fd5b6125bf816112db565b6125fe576040517f08c379a00000000000000000000000000000000000000000000000000000000081526004016125f590615471565b60405180910390fd5b60007f000000000000000000000000000000000000000000000000000000000000000073ffffffffffffffffffffffffffffffffffffffff1663c3453153836040518263ffffffff1660e01b81526004016126599190614fd5565b60806040518083038186803b15801561267157600080fd5b505afa158015612685573d6000803e3d6000fd5b505050506040513d601f19601f820116820180604052508101906126a99190613e01565b90507f000000000000000000000000000000000000000000000000000000000000000073ffffffffffffffffffffffffffffffffffffffff166309a08af4838584600001516040518463ffffffff1660e01b815260040161270c9392919061504a565b600060405180830381600087803b15801561272657600080fd5b505af115801561273a573d6000803e3d6000fd5b5050505050505050565b61274c613006565b73ffffffffffffffffffffffffffffffffffffffff1661276a611bc4565b73ffffffffffffffffffffffffffffffffffffffff16146127f3576040517f08c379a00000000000000000000000000000000000000000000000000000000081526004018080602001828103825260208152602001807f4f776e61626c653a2063616c6c6572206973206e6f7420746865206f776e657281525060200191505060405180910390fd5b600073ffffffffffffffffffffffffffffffffffffffff168173ffffffffffffffffffffffffffffffffffffffff161415612879576040517f08c379a0000000000000000000000000000000000000000000000000000000008152600401808060200182810382526026815260200180615cd16026913960400191505060405180910390fd5b8073ffffffffffffffffffffffffffffffffffffffff1660008054906101000a900473ffffffffffffffffffffffffffffffffffffffff1673ffffffffffffffffffffffffffffffffffffffff167f8be0079c531659141344cd1fd0a4f28419497f9722a3daafe3b4186f6b6457e060405160405180910390a3806000806101000a81548173ffffffffffffffffffffffffffffffffffffffff021916908373ffffffffffffffffffffffffffffffffffffffff16021790555050565b6000828211156129ae576040517f08c379a000000000000000000000000000000000000000000000000000000000815260040180806020018281038252601e8152602001807f536166654d6174683a207375627472616374696f6e206f766572666c6f77000081525060200191505060405180910390fd5b818303905092915050565b60006004820183511015612a35576040517f08c379a000000000000000000000000000000000000000000000000000000000815260040180806020018281038252601a8152602001807f726561644279746573343a206461746120746f6f2073686f727400000000000081525060200191505060405180910390fd5b6020820183015190507fffffffff000000000000000000000000000000000000000000000000000000008116905092915050565b612a716136eb565b6000848060200190612a839190615883565b6080016020810190612a959190613b02565b73ffffffffffffffffffffffffffffffffffffffff1663b039a88f61c3506040518263ffffffff1660e01b815260040160806040518083038187803b158015612add57600080fd5b5086fa158015612af1573d6000803e3d6000fd5b50505050506040513d601f19601f82011682018060405250810190612b169190613cd1565b9150816060015160003690501115612b63576040517f08c379a0000000000000000000000000000000000000000000000000000000008152600401612b5a906154d1565b60405180910390fd5b6000612b7260003690506112ba565b905060006002600801548686030390506000803690508281612b9057fe5b0490506010811115612bd7576040517f08c379a0000000000000000000000000000000000000000000000000000000008152600401612bce90615391565b60405180910390fd5b8460000151891015612c1e576040517f08c379a0000000000000000000000000000000000000000000000000000000008152600401612c1590615551565b60405180910390fd5b846020015185600001511015612c69576040517f08c379a0000000000000000000000000000000000000000000000000000000008152600401612c60906153f1565b60405180910390fd5b612ce482612cd685612cc88c8060000190612c84919061585f565b60600135612cba8b60400151612cac8d60200151600260030154612ef890919063ffffffff16565b612ef890919063ffffffff16565b612ef890919063ffffffff16565b612ef890919063ffffffff16565b612ef890919063ffffffff16565b935083861015612d29576040517f08c379a0000000000000000000000000000000000000000000000000000000008152600401612d2090615511565b60405180910390fd5b6000612d44858a8060200190612d3f9190615883565b611bed565b9050600d60008a8060200190612d5a9190615883565b6080016020810190612d6c9190613b02565b73ffffffffffffffffffffffffffffffffffffffff1673ffffffffffffffffffffffffffffffffffffffff16815260200190815260200160002054811115612de9576040517f08c379a0000000000000000000000000000000000000000000000000000000008152600401612de0906155d1565b60405180910390fd5b5050505094509492505050565b6000612e1f868060200190612e0b9190615883565b8060c00190612e1a9190615808565b613323565b612e46878060000190612e32919061585f565b8060a00190612e419190615808565b613323565b612e508585613323565b612e5a8888613323565b6102c40101010190506041858590501115612eaa576040517f08c379a0000000000000000000000000000000000000000000000000000000008152600401612ea1906155f1565b60405180910390fd5b60003690508114612ef0576040517f08c379a0000000000000000000000000000000000000000000000000000000008152600401612ee790615591565b60405180910390fd5b505050505050565b600080828401905083811015612f76576040517f08c379a000000000000000000000000000000000000000000000000000000000815260040180806020018281038252601b8152602001807f536166654d6174683a206164646974696f6e206f766572666c6f77000000000081525060200191505060405180910390fd5b8091505092915050565b600080831415612f935760009050613000565b6000828402905082848281612fa457fe5b0414612ffb576040517f08c379a0000000000000000000000000000000000000000000000000000000008152600401808060200182810382526021815260200180615d986021913960400191505060405180910390fd5b809150505b92915050565b600033905090565b61301a81610400613359565b50565b600082826040516020016130329291906152ff565b604051602081830303815290604052905061304c8161300e565b8051602082018181fd5b600080606060006130668761336a565b9050600061309488806020019061307d9190615883565b60a001602081019061308f9190613b02565b6133aa565b90508780602001906130a69190615883565b60a00160208101906130b89190613b02565b73ffffffffffffffffffffffffffffffffffffffff1663e024dc7f60e01b8980600001906130e6919061585f565b836040518060400160405280600c81526020017f52656c61795265717565737400000000000000000000000000000000000000008152506040518060800160405280605d8152602001615c74605d91396040518060e0016040528060a18152602001615cf760a1913960405160200161315f9190614fb3565b60405160208183030381529060405260405160200161318093929190614f6c565b60405160208183030381529060405280519060200120868c8c6040516024016131ae96959493929190615631565b604051602081830303815290604052907bffffffffffffffffffffffffffffffffffffffffffffffffffffffff19166020820180517bffffffffffffffffffffffffffffffffffffffffffffffffffffffff83818316178352505050506040516132189190614f55565b6000604051808303816000865af19150503d8060008114613255576040519150601f19603f3d011682016040523d82523d6000602084013e61325a565b606091505b5080945081965050508415613286578280602001905181019061327d9190613bd5565b80945081955050505b61328f8361300e565b505093509350939050565b6000808211613311576040517f08c379a000000000000000000000000000000000000000000000000000000000815260040180806020018281038252601a8152602001807f536166654d6174683a206469766973696f6e206279207a65726f00000000000081525060200191505060405180910390fd5b81838161331a57fe5b04905092915050565b60007fffffffffffffffffffffffffffffffffffffffffffffffffffffffffffffffe0601f848490500116602001905092915050565b8082511115613366578082525b5050565b606061338482806020019061337f9190615883565b613463565b6040516020016133949190615196565b6040516020818303038152906040529050919050565b600061345c60405180608001604052806040518060400160405280601781526020017f47534e2052656c61796564205472616e73616374696f6e00000000000000000081525081526020016040518060400160405280600181526020017f3200000000000000000000000000000000000000000000000000000000000000815250815260200161343861352d565b81526020018473ffffffffffffffffffffffffffffffffffffffff16815250613535565b9050919050565b60006040518060e0016040528060a18152602001615cf760a19139805190602001208260000135836020013584604001358560600160208101906134a79190613b02565b8660800160208101906134ba9190613b02565b8760a00160208101906134cd9190613b02565b888060c001906134dd9190615808565b6040516134eb929190614f3c565b60405180910390208960e0013560405160200161351099989796959493929190615204565b604051602081830303815290604052805190602001209050919050565b600046905090565b60007f8b73c3c69bb8fe3d512ecc4cf759cc79239f7b179b0ffacaa9a75d522b39400f8260000151805190602001208360200151805190602001208460400151856060015160405160200161358e9594939291906151b1565b604051602081830303815290604052805190602001209050919050565b604051806101a0016040528060001515815260200160007bffffffffffffffffffffffffffffffffffffffffffffffffffffffff191681526020016000815260200160608152602001606081526020016136036136eb565b81526020016000600681111561361557fe5b815260200160008152602001600081526020016000815260200160608152602001600073ffffffffffffffffffffffffffffffffffffffff168152602001600081525090565b6040518061012001604052806000815260200160008152602001600081526020016000815260200160008152602001600081526020016000815260200160008152602001600081525090565b6040518060e0016040528060008152602001600080191681526020016000151581526020016060815260200160608152602001606081526020016000151581525090565b6040518060800160405280600081526020016000815260200160008152602001600081525090565b6000613726613721846158d9565b6158a8565b90508281526020810184848401111561373e57600080fd5b613749848285615b86565b509392505050565b60008135905061376081615c07565b92915050565b60008135905061377581615c1e565b92915050565b60008151905061378a81615c1e565b92915050565b60008083601f8401126137a257600080fd5b8235905067ffffffffffffffff8111156137bb57600080fd5b6020830191508360208202830111156137d357600080fd5b9250929050565b6000815190506137e981615c35565b92915050565b60008083601f84011261380157600080fd5b8235905067ffffffffffffffff81111561381a57600080fd5b60208301915083600182028301111561383257600080fd5b9250929050565b600082601f83011261384a57600080fd5b815161385a848260208601613713565b91505092915050565b60008151905061387281615c4c565b92915050565b60008083601f84011261388a57600080fd5b8235905067ffffffffffffffff8111156138a357600080fd5b6020830191508360018202830111156138bb57600080fd5b9250929050565b6000608082840312156138d457600080fd5b81905092915050565b6000608082840312156138ef57600080fd5b6138f960806158a8565b9050600061390984828501613aed565b600083015250602061391d84828501613aed565b602083015250604061393184828501613aed565b604083015250606061394584828501613aed565b60608301525092915050565b6000610100828403121561396457600080fd5b81905092915050565b6000610120828403121561398057600080fd5b61398b6101206158a8565b9050600061399b84828501613ad8565b60008301525060206139af84828501613ad8565b60208301525060406139c384828501613ad8565b60408301525060606139d784828501613ad8565b60608301525060806139eb84828501613ad8565b60808301525060a06139ff84828501613ad8565b60a08301525060c0613a1384828501613ad8565b60c08301525060e0613a2784828501613ad8565b60e083015250610100613a3c84828501613ad8565b6101008301525092915050565b600060408284031215613a5b57600080fd5b81905092915050565b600060808284031215613a7657600080fd5b613a8060806158a8565b90506000613a9084828501613aed565b6000830152506020613aa484828501613aed565b6020830152506040613ab884828501613aed565b6040830152506060613acc8482850161377b565b60608301525092915050565b600081359050613ae781615c5c565b92915050565b600081519050613afc81615c5c565b92915050565b600060208284031215613b1457600080fd5b6000613b2284828501613751565b91505092915050565b60008060408385031215613b3e57600080fd5b6000613b4c85828601613751565b9250506020613b5d85828601613766565b9150509250929050565b60008060208385031215613b7a57600080fd5b600083013567ffffffffffffffff811115613b9457600080fd5b613ba085828601613790565b92509250509250929050565b600060208284031215613bbe57600080fd5b6000613bcc848285016137da565b91505092915050565b60008060408385031215613be857600080fd5b6000613bf6858286016137da565b925050602083015167ffffffffffffffff811115613c1357600080fd5b613c1f85828601613839565b9150509250929050565b60008060408385031215613c3c57600080fd5b600083015167ffffffffffffffff811115613c5657600080fd5b613c6285828601613839565b9250506020613c73858286016137da565b9150509250929050565b60008060408385031215613c9057600080fd5b6000613c9e85828601613863565b925050602083015167ffffffffffffffff811115613cbb57600080fd5b613cc785828601613839565b9150509250929050565b600060808284031215613ce357600080fd5b6000613cf1848285016138dd565b91505092915050565b60006101208284031215613d0d57600080fd5b6000613d1b8482850161396d565b91505092915050565b600080600080600080600080610120898b031215613d4157600080fd5b600089013567ffffffffffffffff811115613d5b57600080fd5b613d678b828c01613a49565b985050602089013567ffffffffffffffff811115613d8457600080fd5b613d908b828c016137ef565b9750975050604089013567ffffffffffffffff811115613daf57600080fd5b613dbb8b828c016137ef565b95509550506060613dce8b828c016138c2565b93505060e0613ddf8b828c01613ad8565b925050610100613df18b828c01613ad8565b9150509295985092959890939650565b600060808284031215613e1357600080fd5b6000613e2184828501613a64565b91505092915050565b600060208284031215613e3c57600080fd5b6000613e4a84828501613ad8565b91505092915050565b60008060408385031215613e6657600080fd5b6000613e7485828601613ad8565b9250506020613e8585828601613766565b9150509250929050565b60008060408385031215613ea257600080fd5b6000613eb085828601613ad8565b925050602083013567ffffffffffffffff811115613ecd57600080fd5b613ed985828601613951565b9150509250929050565b600080600080600080600060a0888a031215613efe57600080fd5b6000613f0c8a828b01613ad8565b975050602088013567ffffffffffffffff811115613f2957600080fd5b613f358a828b01613a49565b965050604088013567ffffffffffffffff811115613f5257600080fd5b613f5e8a828b016137ef565b9550955050606088013567ffffffffffffffff811115613f7d57600080fd5b613f898a828b016137ef565b93509350506080613f9c8a828b01613ad8565b91505092959891949750929550565b60008060008060608587031215613fc157600080fd5b6000613fcf87828801613ad8565b9450506020613fe087828801613ad8565b935050604085013567ffffffffffffffff811115613ffd57600080fd5b61400987828801613878565b925092505092959194509250565b6000614023838361404d565b60208301905092915050565b61403881615b0b565b82525050565b61404781615a7a565b82525050565b61405681615a68565b82525050565b61406581615a68565b82525050565b60006140778385615936565b935061408282615909565b8060005b858110156140bb576140988284615990565b6140a28882614017565b97506140ad83615929565b925050600181019050614086565b5085925050509392505050565b6140d181615a8c565b82525050565b6140e081615a98565b82525050565b6140ef81615aa2565b82525050565b60006141018385615947565b935061410e838584615b77565b61411783615bd5565b840190509392505050565b600061412e8385615958565b935061413b838584615b77565b61414483615bd5565b840190509392505050565b600061415b8385615969565b9350614168838584615b77565b82840190509392505050565b600061417f82615913565b6141898185615958565b9350614199818560208601615b86565b6141a281615bd5565b840191505092915050565b60006141b882615913565b6141c28185615969565b93506141d2818560208601615b86565b80840191505092915050565b6141e781615b1d565b82525050565b6141f681615b41565b82525050565b60006142088385615974565b9350614215838584615b77565b61421e83615bd5565b840190509392505050565b60006142348261591e565b61423e8185615974565b935061424e818560208601615b86565b61425781615bd5565b840191505092915050565b600061426d8261591e565b6142778185615985565b9350614287818560208601615b86565b80840191505092915050565b60006142a0601483615974565b91507f496d706f737369626c6520676173206c696d69740000000000000000000000006000830152602082019050919050565b60006142e0600e83615974565b91507f68756220646570726563617465640000000000000000000000000000000000006000830152602082019050919050565b6000614320601883615974565b91507f696e76616c69642065787465726e616c4761734c696d697400000000000000006000830152602082019050919050565b6000614360601283615974565b91507f416c7265616479206465707265636174656400000000000000000000000000006000830152602082019050919050565b60006143a0601983615974565b91507f7468697320776f726b6572206861732061206d616e61676572000000000000006000830152602082019050919050565b60006143e0601983615974565b91507f616363657074616e63652062756467657420746f6f206c6f77000000000000006000830152602082019050919050565b6000614420601a83615974565b91507f4d7573742062652063616c6c65642062792052656c61794875620000000000006000830152602082019050919050565b6000614460600183615985565b91507f2c000000000000000000000000000000000000000000000000000000000000006000830152600182019050919050565b60006144a0601483615985565b91507f52656c6179446174612072656c617944617461290000000000000000000000006000830152601482019050919050565b60006144e0601183615974565b91507f496e76616c6964206761732070726963650000000000000000000000000000006000830152602082019050919050565b6000614520600183615985565b91507f28000000000000000000000000000000000000000000000000000000000000006000830152600182019050919050565b6000614560600f83615974565b91507f6465706f73697420746f6f2062696700000000000000000000000000000000006000830152602082019050919050565b60006145a0601883615974565b91507f72656c6179206d616e61676572206e6f74207374616b656400000000000000006000830152602082019050919050565b60006145e0601883615974565b91507f72656c617920776f726b6572206d75737420626520454f4100000000000000006000830152602082019050919050565b6000614620601083615974565b91507f6e6f2072656c617920776f726b657273000000000000000000000000000000006000830152602082019050919050565b6000614660601783615974565b91507f6d73672e64617461206578636565646564206c696d69740000000000000000006000830152602082019050919050565b60006146a0600d83615974565b91507f4e6f742070656e616c697a6572000000000000000000000000000000000000006000830152602082019050919050565b60006146e0601983615974565b91507f6e6f2067617320666f7220696e6e657252656c617943616c6c000000000000006000830152602082019050919050565b6000614720601083615974565b91507f746f6f206d616e7920776f726b657273000000000000000000000000000000006000830152602082019050919050565b6000614760601a83615974565b91507f616363657074616e63652062756467657420746f6f20686967680000000000006000830152602082019050919050565b60006147a0601283615974565b91507f696e73756666696369656e742066756e647300000000000000000000000000006000830152602082019050919050565b60006147e0601483615974565b91507f6578747261206d73672e646174612062797465730000000000000000000000006000830152602082019050919050565b6000614820601283615974565b91507f4e6f74206120726967687420776f726b657200000000000000000000000000006000830152602082019050919050565b6000614860601983615974565b91507f5061796d61737465722062616c616e636520746f6f206c6f77000000000000006000830152602082019050919050565b60006148a0601883615974565b91507f696e76616c6964207369676e6174757265206c656e67746800000000000000006000830152602082019050919050565b60006148e0601483615974565b91507f556e6b6e6f776e2072656c617920776f726b65720000000000000000000000006000830152602082019050919050565b600060e083016149266000840184615990565b614933600086018261404d565b506149416020840184615990565b61494e602086018261404d565b5061495c6040840184615a47565b6149696040860182614f1e565b506149776060840184615a47565b6149846060860182614f1e565b506149926080840184615a47565b61499f6080860182614f1e565b506149ad60a08401846159a7565b85830360a08701526149c08382846140f5565b925050506149d160c0840184615a47565b6149de60c0860182614f1e565b508091505092915050565b600060e083016149fc6000840184615990565b614a09600086018261404d565b50614a176020840184615990565b614a24602086018261404d565b50614a326040840184615a47565b614a3f6040860182614f1e565b50614a4d6060840184615a47565b614a5a6060860182614f1e565b50614a686080840184615a47565b614a756080860182614f1e565b50614a8360a08401846159a7565b85830360a0870152614a968382846140f5565b92505050614aa760c0840184615a47565b614ab460c0860182614f1e565b508091505092915050565b608082016000820151614ad56000850182614f1e565b506020820151614ae86020850182614f1e565b506040820151614afb6040850182614f1e565b506060820151614b0e6060850182614f1e565b50505050565b60006101008301614b286000840184615a47565b614b356000860182614f1e565b50614b436020840184615a47565b614b506020860182614f1e565b50614b5e6040840184615a47565b614b6b6040860182614f1e565b50614b796060840184615990565b614b86606086018261404d565b50614b946080840184615990565b614ba1608086018261404d565b50614baf60a0840184615990565b614bbc60a086018261404d565b50614bca60c08401846159a7565b85830360c0870152614bdd8382846140f5565b92505050614bee60e0840184615a47565b614bfb60e0860182614f1e565b508091505092915050565b60006101008301614c1a6000840184615a47565b614c276000860182614f1e565b50614c356020840184615a47565b614c426020860182614f1e565b50614c506040840184615a47565b614c5d6040860182614f1e565b50614c6b6060840184615990565b614c78606086018261404d565b50614c866080840184615990565b614c93608086018261404d565b50614ca160a0840184615990565b614cae60a086018261404d565b50614cbc60c08401846159a7565b85830360c0870152614ccf8382846140f5565b92505050614ce060e0840184615a47565b614ced60e0860182614f1e565b508091505092915050565b61012082016000820151614d0f6000850182614f1e565b506020820151614d226020850182614f1e565b506040820151614d356040850182614f1e565b506060820151614d486060850182614f1e565b506080820151614d5b6080850182614f1e565b5060a0820151614d6e60a0850182614f1e565b5060c0820151614d8160c0850182614f1e565b5060e0820151614d9460e0850182614f1e565b50610100820151614da9610100850182614f1e565b50505050565b61012082016000808301549050614dc581615bb9565b614dd26000860182614f1e565b5060018301549050614de381615bb9565b614df06020860182614f1e565b5060028301549050614e0181615bb9565b614e0e6040860182614f1e565b5060038301549050614e1f81615bb9565b614e2c6060860182614f1e565b5060048301549050614e3d81615bb9565b614e4a6080860182614f1e565b5060058301549050614e5b81615bb9565b614e6860a0860182614f1e565b5060068301549050614e7981615bb9565b614e8660c0860182614f1e565b5060078301549050614e9781615bb9565b614ea460e0860182614f1e565b5060088301549050614eb581615bb9565b614ec3610100860182614f1e565b5050505050565b600060408301614edd60008401846159fe565b8482036000860152614eef8282614913565b915050614eff6020840184615a22565b8482036020860152614f118282614b14565b9150508091505092915050565b614f2781615b01565b82525050565b614f3681615b01565b82525050565b6000614f4982848661414f565b91508190509392505050565b6000614f6182846141ad565b915081905092915050565b6000614f788286614262565b9150614f8382614513565b9150614f8f8285614262565b9150614f9a82614453565b9150614fa68284614262565b9150819050949350505050565b6000614fbe82614493565b9150614fca82846141ad565b915081905092915050565b6000602082019050614fea600083018461405c565b92915050565b600060a082019050615005600083018861405c565b615012602083018761402f565b61501f60408301866140e6565b61502c6060830185614f2d565b818103608083015261503e8184614174565b90509695505050505050565b600060608201905061505f600083018661405c565b61506c602083018561403e565b6150796040830184614f2d565b949350505050565b600060a082019050615096600083018861405c565b6150a3602083018761405c565b6150b060408301866140e6565b6150bd60608301856141ed565b6150ca6080830184614f2d565b9695505050505050565b60006080820190506150e9600083018761405c565b6150f6602083018661405c565b6151036040830185614f2d565b6151106060830184614f2d565b95945050505050565b6000604082019050818103600083015261513481858761406b565b90506151436020830184614f2d565b949350505050565b600060208201905061516060008301846140c8565b92915050565b600060408201905061517b60008301856140c8565b818103602083015261518d8184614174565b90509392505050565b60006020820190506151ab60008301846140d7565b92915050565b600060a0820190506151c660008301886140d7565b6151d360208301876140d7565b6151e060408301866140d7565b6151ed6060830185614f2d565b6151fa608083018461405c565b9695505050505050565b60006101208201905061521a600083018c6140d7565b615227602083018b614f2d565b615234604083018a614f2d565b6152416060830189614f2d565b61524e608083018861405c565b61525b60a083018761405c565b61526860c083018661405c565b61527560e08301856140d7565b615283610100830184614f2d565b9a9950505050505050505050565b600060808201905081810360008301526152ab8187614174565b90506152ba60208301866140c8565b6152c76040830185614f2d565b81810360608301526152d98184614c06565b905095945050505050565b60006020820190506152f960008301846141de565b92915050565b600060408201905061531460008301856141ed565b81810360208301526153268184614174565b90509392505050565b600060208201905081810360008301526153498184614229565b905092915050565b6000602082019050818103600083015261536a81614293565b9050919050565b6000602082019050818103600083015261538a816142d3565b9050919050565b600060208201905081810360008301526153aa81614313565b9050919050565b600060208201905081810360008301526153ca81614353565b9050919050565b600060208201905081810360008301526153ea81614393565b9050919050565b6000602082019050818103600083015261540a816143d3565b9050919050565b6000602082019050818103600083015261542a81614413565b9050919050565b6000602082019050818103600083015261544a816144d3565b9050919050565b6000602082019050818103600083015261546a81614553565b9050919050565b6000602082019050818103600083015261548a81614593565b9050919050565b600060208201905081810360008301526154aa816145d3565b9050919050565b600060208201905081810360008301526154ca81614613565b9050919050565b600060208201905081810360008301526154ea81614653565b9050919050565b6000602082019050818103600083015261550a81614693565b9050919050565b6000602082019050818103600083015261552a816146d3565b9050919050565b6000602082019050818103600083015261554a81614713565b9050919050565b6000602082019050818103600083015261556a81614753565b9050919050565b6000602082019050818103600083015261558a81614793565b9050919050565b600060208201905081810360008301526155aa816147d3565b9050919050565b600060208201905081810360008301526155ca81614813565b9050919050565b600060208201905081810360008301526155ea81614853565b9050919050565b6000602082019050818103600083015261560a81614893565b9050919050565b6000602082019050818103600083015261562a816148d3565b9050919050565b600060a082019050818103600083015261564b81896149e9565b905061565a60208301886140d7565b61566760408301876140d7565b81810360608301526156798186614174565b9050818103608083015261568e818486614122565b9050979650505050505050565b6000610120820190506156b16000830184614cf8565b92915050565b6000610120820190506156cd6000830184614daf565b92915050565b60006101208201905081810360008301526156ee818b614eca565b9050818103602083015261570381898b614122565b90508181036040830152615718818789614122565b90506157276060830186614abf565b61573460e0830185614f2d565b615742610100830184614f2d565b9998505050505050505050565b600060808201905081810360008301526157698189614eca565b9050818103602083015261577e818789614122565b90508181036040830152615793818587614122565b90506157a26060830184614f2d565b979650505050505050565b60006020820190506157c26000830184614f2d565b92915050565b60006060820190506157dd6000830187614f2d565b6157ea6020830186614f2d565b81810360408301526157fd8184866141fc565b905095945050505050565b6000808335600160200384360303811261582157600080fd5b80840192508235915067ffffffffffffffff82111561583f57600080fd5b60208301925060018202360383131561585757600080fd5b509250929050565b60008235600160e00383360303811261587757600080fd5b80830191505092915050565b6000823560016101000383360303811261589c57600080fd5b80830191505092915050565b6000604051905081810181811067ffffffffffffffff821117156158cf576158ce615bd3565b5b8060405250919050565b600067ffffffffffffffff8211156158f4576158f3615bd3565b5b601f19601f8301169050602081019050919050565b6000819050919050565b600081519050919050565b600081519050919050565b6000602082019050919050565b600082825260208201905092915050565b600082825260208201905092915050565b600082825260208201905092915050565b600081905092915050565b600082825260208201905092915050565b600081905092915050565b600061599f6020840184613751565b905092915050565b600080833560016020038436030381126159c057600080fd5b83810192508235915060208301925067ffffffffffffffff8211156159e457600080fd5b6001820236038413156159f657600080fd5b509250929050565b60008235600160e003833603038112615a1657600080fd5b82810191505092915050565b60008235600161010003833603038112615a3b57600080fd5b82810191505092915050565b6000615a566020840184613ad8565b905092915050565b6000819050919050565b6000615a7382615ae1565b9050919050565b6000615a8582615ae1565b9050919050565b60008115159050919050565b6000819050919050565b60007fffffffff0000000000000000000000000000000000000000000000000000000082169050919050565b6000819050615adc82615bf3565b919050565b600073ffffffffffffffffffffffffffffffffffffffff82169050919050565b6000819050919050565b6000615b1682615b53565b9050919050565b6000615b2882615b2f565b9050919050565b6000615b3a82615ae1565b9050919050565b6000615b4c82615ace565b9050919050565b6000615b5e82615b65565b9050919050565b6000615b7082615ae1565b9050919050565b82818337600083830152505050565b60005b83811015615ba4578082015181840152602081019050615b89565b83811115615bb3576000848401525b50505050565b6000615bcc615bc783615be6565b615a5e565b9050919050565bfe5b6000601f19601f8301169050919050565b60008160001c9050919050565b60078110615c0457615c03615bd3565b5b50565b615c1081615a68565b8114615c1b57600080fd5b50565b615c2781615a7a565b8114615c3257600080fd5b50565b615c3e81615a8c565b8114615c4957600080fd5b50565b60078110615c5957600080fd5b50565b615c6581615b01565b8114615c7057600080fd5b5056fe616464726573732066726f6d2c6164647265737320746f2c75696e743235362076616c75652c75696e74323536206761732c75696e74323536206e6f6e63652c627974657320646174612c75696e743235362076616c6964556e74696c4f776e61626c653a206e6577206f776e657220697320746865207a65726f206164647265737352656c6179446174612875696e743235362067617350726963652c75696e743235362070637452656c61794665652c75696e74323536206261736552656c61794665652c616464726573732072656c6179576f726b65722c61646472657373207061796d61737465722c6164647265737320666f727761726465722c6279746573207061796d6173746572446174612c75696e7432353620636c69656e74496429536166654d6174683a206d756c7469706c69636174696f6e206f766572666c6f77a264697066735822122067ebca4226175501693781509c30784ab696c1de7aec42b297b380346e6363e964736f6c63430007060033",
  "immutableReferences": {
    "215": [
      {
        "length": 32,
        "start": 4831
      },
      {
        "length": 32,
        "start": 6776
      },
      {
        "length": 32,
        "start": 9730
      },
      {
        "length": 32,
        "start": 9901
      }
    ],
    "218": [
      {
        "length": 32,
        "start": 8707
      },
      {
        "length": 32,
        "start": 9302
      }
    ]
  },
  "source": "/* solhint-disable avoid-low-level-calls */\n/* solhint-disable no-inline-assembly */\n/* solhint-disable not-rely-on-time */\n/* solhint-disable avoid-tx-origin */\n/* solhint-disable bracket-align */\n// SPDX-License-Identifier: GPL-3.0-only\npragma solidity ^0.7.6;\npragma abicoder v2;\n\nimport \"./utils/MinLibBytes.sol\";\nimport \"@openzeppelin/contracts/math/SafeMath.sol\";\nimport \"@openzeppelin/contracts/access/Ownable.sol\";\n\nimport \"./utils/GsnUtils.sol\";\nimport \"./utils/GsnEip712Library.sol\";\nimport \"./utils/RelayHubValidator.sol\";\nimport \"./utils/GsnTypes.sol\";\nimport \"./interfaces/IRelayHub.sol\";\nimport \"./interfaces/IPaymaster.sol\";\nimport \"./forwarder/IForwarder.sol\";\nimport \"./interfaces/IStakeManager.sol\";\n\ncontract RelayHub is IRelayHub, Ownable {\n    using SafeMath for uint256;\n\n    string public override versionHub = \"2.2.0+opengsn.hub.irelayhub\";\n\n    IStakeManager immutable override public stakeManager;\n    address immutable override public penalizer;\n\n    RelayHubConfig private config;\n\n    function getConfiguration() public override view returns (RelayHubConfig memory) {\n        return config;\n    }\n\n    function setConfiguration(RelayHubConfig memory _config) public override onlyOwner {\n        config = _config;\n        emit RelayHubConfigured(config);\n    }\n\n    uint256 public constant G_NONZERO = 16;\n\n    // maps relay worker's address to its manager's address\n    mapping(address => address) public override workerToManager;\n\n    // maps relay managers to the number of their workers\n    mapping(address => uint256) public override workerCount;\n\n    mapping(address => uint256) private balances;\n\n    uint256 public override deprecationBlock = type(uint).max;\n\n    constructor (\n        IStakeManager _stakeManager,\n        address _penalizer,\n        uint256 _maxWorkerCount,\n        uint256 _gasReserve,\n        uint256 _postOverhead,\n        uint256 _gasOverhead,\n        uint256 _maximumRecipientDeposit,\n        uint256 _minimumUnstakeDelay,\n        uint256 _minimumStake,\n        uint256 _dataGasCostPerByte,\n        uint256 _externalCallDataCostOverhead\n    ) {\n        stakeManager = _stakeManager;\n        penalizer = _penalizer;\n        setConfiguration(RelayHubConfig(\n            _maxWorkerCount,\n            _gasReserve,\n            _postOverhead,\n            _gasOverhead,\n            _maximumRecipientDeposit,\n            _minimumUnstakeDelay,\n            _minimumStake,\n            _dataGasCostPerByte,\n            _externalCallDataCostOverhead\n        ));\n    }\n\n    function registerRelayServer(uint256 baseRelayFee, uint256 pctRelayFee, string calldata url) external override {\n        address relayManager = msg.sender;\n        require(\n            isRelayManagerStaked(relayManager),\n            \"relay manager not staked\"\n        );\n        require(workerCount[relayManager] > 0, \"no relay workers\");\n        emit RelayServerRegistered(relayManager, baseRelayFee, pctRelayFee, url);\n    }\n\n    function addRelayWorkers(address[] calldata newRelayWorkers) external override {\n        address relayManager = msg.sender;\n        uint256 newWorkerCount = workerCount[relayManager] + newRelayWorkers.length;\n        workerCount[relayManager] = newWorkerCount;\n        require(newWorkerCount <= config.maxWorkerCount, \"too many workers\");\n\n        require(\n            isRelayManagerStaked(relayManager),\n            \"relay manager not staked\"\n        );\n\n        for (uint256 i = 0; i < newRelayWorkers.length; i++) {\n            require(workerToManager[newRelayWorkers[i]] == address(0), \"this worker has a manager\");\n            workerToManager[newRelayWorkers[i]] = relayManager;\n        }\n\n        emit RelayWorkersAdded(relayManager, newRelayWorkers, newWorkerCount);\n    }\n\n    function depositFor(address target) public override payable {\n        uint256 amount = msg.value;\n        require(amount <= config.maximumRecipientDeposit, \"deposit too big\");\n\n        balances[target] = balances[target].add(amount);\n\n        emit Deposited(target, msg.sender, amount);\n    }\n\n    function balanceOf(address target) external override view returns (uint256) {\n        return balances[target];\n    }\n\n    function withdraw(uint256 amount, address payable dest) public override {\n        address payable account = msg.sender;\n        require(balances[account] >= amount, \"insufficient funds\");\n\n        balances[account] = balances[account].sub(amount);\n        dest.transfer(amount);\n\n        emit Withdrawn(account, dest, amount);\n    }\n\n    function calldataGasCost(uint256 length) public override view returns (uint256) {\n        return config.dataGasCostPerByte.mul(length);\n}\n\n    function verifyGasAndDataLimits(\n        uint256 maxAcceptanceBudget,\n        GsnTypes.RelayRequest calldata relayRequest,\n        uint256 initialGasLeft,\n        uint256 externalGasLimit\n    )\n    private\n    view\n    returns (IPaymaster.GasAndDataLimits memory gasAndDataLimits, uint256 maxPossibleGas) {\n        gasAndDataLimits =\n            IPaymaster(relayRequest.relayData.paymaster).getGasAndDataLimits{gas:50000}();\n        require(msg.data.length <= gasAndDataLimits.calldataSizeLimit, \"msg.data exceeded limit\" );\n        uint256 dataGasCost = calldataGasCost(msg.data.length);\n        uint256 externalCallDataCost = externalGasLimit - initialGasLeft - config.externalCallDataCostOverhead;\n        uint256 txDataCostPerByte = externalCallDataCost/msg.data.length;\n        require(txDataCostPerByte <= G_NONZERO, \"invalid externalGasLimit\");\n\n        require(maxAcceptanceBudget >= gasAndDataLimits.acceptanceBudget, \"acceptance budget too high\");\n        require(gasAndDataLimits.acceptanceBudget >= gasAndDataLimits.preRelayedCallGasLimit, \"acceptance budget too low\");\n\n        maxPossibleGas =\n            config.gasOverhead.add(\n            gasAndDataLimits.preRelayedCallGasLimit).add(\n            gasAndDataLimits.postRelayedCallGasLimit).add(\n            relayRequest.request.gas).add(\n            dataGasCost).add(\n            externalCallDataCost);\n\n        // This transaction must have enough gas to forward the call to the recipient with the requested amount, and not\n        // run out of gas later in this function.\n        require(\n            externalGasLimit >= maxPossibleGas,\n            \"no gas for innerRelayCall\");\n\n        uint256 maxPossibleCharge = calculateCharge(\n            maxPossibleGas,\n            relayRequest.relayData\n        );\n\n        // We don't yet know how much gas will be used by the recipient, so we make sure there are enough funds to pay\n        // for the maximum possible charge.\n        require(maxPossibleCharge <= balances[relayRequest.relayData.paymaster],\n            \"Paymaster balance too low\");\n    }\n\n    struct RelayCallData {\n        bool success;\n        bytes4 functionSelector;\n        uint256 initialGasLeft;\n        bytes recipientContext;\n        bytes relayedCallReturnValue;\n        IPaymaster.GasAndDataLimits gasAndDataLimits;\n        RelayCallStatus status;\n        uint256 innerGasUsed;\n        uint256 maxPossibleGas;\n        uint256 gasBeforeInner;\n        bytes retData;\n        address relayManager;\n        uint256 dataGasCost;\n    }\n\n    function relayCall(\n        uint maxAcceptanceBudget,\n        GsnTypes.RelayRequest calldata relayRequest,\n        bytes calldata signature,\n        bytes calldata approvalData,\n        uint externalGasLimit\n    )\n    external\n    override\n    returns (bool paymasterAccepted, bytes memory returnValue)\n    {\n        RelayCallData memory vars;\n        vars.initialGasLeft = gasleft();\n        require(!isDeprecated(), \"hub deprecated\");\n        vars.functionSelector = relayRequest.request.data.length>=4 ? MinLibBytes.readBytes4(relayRequest.request.data, 0) : bytes4(0);\n        require(msg.sender == tx.origin, \"relay worker must be EOA\");\n        vars.relayManager = workerToManager[msg.sender];\n        require(vars.relayManager != address(0), \"Unknown relay worker\");\n        require(relayRequest.relayData.relayWorker == msg.sender, \"Not a right worker\");\n        require(\n            isRelayManagerStaked(vars.relayManager),\n            \"relay manager not staked\"\n        );\n        require(relayRequest.relayData.gasPrice <= tx.gasprice, \"Invalid gas price\");\n        require(externalGasLimit <= block.gaslimit, \"Impossible gas limit\");\n\n        (vars.gasAndDataLimits, vars.maxPossibleGas) =\n             verifyGasAndDataLimits(maxAcceptanceBudget, relayRequest, vars.initialGasLeft, externalGasLimit);\n\n        RelayHubValidator.verifyTransactionPacking(relayRequest,signature,approvalData);\n\n    {\n\n        //How much gas to pass down to innerRelayCall. must be lower than the default 63/64\n        // actually, min(gasleft*63/64, gasleft-GAS_RESERVE) might be enough.\n        uint256 innerGasLimit = gasleft()*63/64- config.gasReserve;\n        vars.gasBeforeInner = gasleft();\n\n        uint256 _tmpInitialGas = innerGasLimit + externalGasLimit + config.gasOverhead + config.postOverhead;\n        // Calls to the recipient are performed atomically inside an inner transaction which may revert in case of\n        // errors in the recipient. In either case (revert or regular execution) the return data encodes the\n        // RelayCallStatus value.\n        (bool success, bytes memory relayCallStatus) = address(this).call{gas:innerGasLimit}(\n            abi.encodeWithSelector(RelayHub.innerRelayCall.selector, relayRequest, signature, approvalData, vars.gasAndDataLimits,\n                _tmpInitialGas - gasleft(),\n                vars.maxPossibleGas\n                )\n        );\n        vars.success = success;\n        vars.innerGasUsed = vars.gasBeforeInner-gasleft();\n        (vars.status, vars.relayedCallReturnValue) = abi.decode(relayCallStatus, (RelayCallStatus, bytes));\n        if ( vars.relayedCallReturnValue.length>0 ) {\n            emit TransactionResult(vars.status, vars.relayedCallReturnValue);\n        }\n    }\n    {\n        vars.dataGasCost = calldataGasCost(msg.data.length);\n        if (!vars.success) {\n            //Failure cases where the PM doesn't pay\n            if (vars.status == RelayCallStatus.RejectedByPreRelayed ||\n                    (vars.innerGasUsed <= vars.gasAndDataLimits.acceptanceBudget.add(vars.dataGasCost)) && (\n                    vars.status == RelayCallStatus.RejectedByForwarder ||\n                    vars.status == RelayCallStatus.RejectedByRecipientRevert  //can only be thrown if rejectOnRecipientRevert==true\n            )) {\n                paymasterAccepted=false;\n\n                emit TransactionRejectedByPaymaster(\n                    vars.relayManager,\n                    relayRequest.relayData.paymaster,\n                    relayRequest.request.from,\n                    relayRequest.request.to,\n                    msg.sender,\n                    vars.functionSelector,\n                    vars.innerGasUsed,\n                    vars.relayedCallReturnValue);\n                return (false, vars.relayedCallReturnValue);\n            }\n        }\n        // We now perform the actual charge calculation, based on the measured gas used\n        uint256 gasUsed = (externalGasLimit - gasleft()) + config.gasOverhead;\n        uint256 charge = calculateCharge(gasUsed, relayRequest.relayData);\n\n        balances[relayRequest.relayData.paymaster] = balances[relayRequest.relayData.paymaster].sub(charge);\n        balances[vars.relayManager] = balances[vars.relayManager].add(charge);\n\n        emit TransactionRelayed(\n            vars.relayManager,\n            msg.sender,\n            relayRequest.request.from,\n            relayRequest.request.to,\n            relayRequest.relayData.paymaster,\n            vars.functionSelector,\n            vars.status,\n            charge);\n        return (true, \"\");\n    }\n    }\n\n    struct InnerRelayCallData {\n        uint256 balanceBefore;\n        bytes32 preReturnValue;\n        bool relayedCallSuccess;\n        bytes relayedCallReturnValue;\n        bytes recipientContext;\n        bytes data;\n        bool rejectOnRecipientRevert;\n    }\n\n    function innerRelayCall(\n        GsnTypes.RelayRequest calldata relayRequest,\n        bytes calldata signature,\n        bytes calldata approvalData,\n        IPaymaster.GasAndDataLimits calldata gasAndDataLimits,\n        uint256 totalInitialGas,\n        uint256 maxPossibleGas\n    )\n    external\n    returns (RelayCallStatus, bytes memory)\n    {\n        InnerRelayCallData memory vars;\n        // A new gas measurement is performed inside innerRelayCall, since\n        // due to EIP150 available gas amounts cannot be directly compared across external calls\n\n        // This external function can only be called by RelayHub itself, creating an internal transaction. Calls to the\n        // recipient (preRelayedCall, the relayedCall, and postRelayedCall) are called from inside this transaction.\n        require(msg.sender == address(this), \"Must be called by RelayHub\");\n\n        // If either pre or post reverts, the whole internal transaction will be reverted, reverting all side effects on\n        // the recipient. The recipient will still be charged for the used gas by the relay.\n\n        // The paymaster is no allowed to withdraw balance from RelayHub during a relayed transaction. We check pre and\n        // post state to ensure this doesn't happen.\n        vars.balanceBefore = balances[relayRequest.relayData.paymaster];\n\n        // First preRelayedCall is executed.\n        // Note: we open a new block to avoid growing the stack too much.\n        vars.data = abi.encodeWithSelector(\n            IPaymaster.preRelayedCall.selector,\n                relayRequest, signature, approvalData, maxPossibleGas\n        );\n        {\n            bool success;\n            bytes memory retData;\n            (success, retData) = relayRequest.relayData.paymaster.call{gas:gasAndDataLimits.preRelayedCallGasLimit}(vars.data);\n            if (!success) {\n                GsnEip712Library.truncateInPlace(retData);\n                revertWithStatus(RelayCallStatus.RejectedByPreRelayed, retData);\n            }\n            (vars.recipientContext, vars.rejectOnRecipientRevert) = abi.decode(retData, (bytes,bool));\n        }\n\n        // The actual relayed call is now executed. The sender's address is appended at the end of the transaction data\n\n        {\n            bool forwarderSuccess;\n            (forwarderSuccess, vars.relayedCallSuccess, vars.relayedCallReturnValue) = GsnEip712Library.execute(relayRequest, signature);\n            if ( !forwarderSuccess ) {\n                revertWithStatus(RelayCallStatus.RejectedByForwarder, vars.relayedCallReturnValue);\n            }\n\n            if (vars.rejectOnRecipientRevert && !vars.relayedCallSuccess) {\n                // we trusted the recipient, but it reverted...\n                revertWithStatus(RelayCallStatus.RejectedByRecipientRevert, vars.relayedCallReturnValue);\n            }\n        }\n        // Finally, postRelayedCall is executed, with the relayedCall execution's status and a charge estimate\n        // We now determine how much the recipient will be charged, to pass this value to postRelayedCall for accurate\n        // accounting.\n        vars.data = abi.encodeWithSelector(\n            IPaymaster.postRelayedCall.selector,\n            vars.recipientContext,\n            vars.relayedCallSuccess,\n            totalInitialGas - gasleft(), /*gasUseWithoutPost*/\n            relayRequest.relayData\n        );\n\n        {\n        (bool successPost,bytes memory ret) = relayRequest.relayData.paymaster.call{gas:gasAndDataLimits.postRelayedCallGasLimit}(vars.data);\n\n        if (!successPost) {\n            revertWithStatus(RelayCallStatus.PostRelayedFailed, ret);\n        }\n        }\n\n        if (balances[relayRequest.relayData.paymaster] < vars.balanceBefore) {\n            revertWithStatus(RelayCallStatus.PaymasterBalanceChanged, \"\");\n        }\n\n        return (vars.relayedCallSuccess ? RelayCallStatus.OK : RelayCallStatus.RelayedCallFailed, vars.relayedCallReturnValue);\n    }\n\n    /**\n     * @dev Reverts the transaction with return data set to the ABI encoding of the status argument (and revert reason data)\n     */\n    function revertWithStatus(RelayCallStatus status, bytes memory ret) private pure {\n        bytes memory data = abi.encode(status, ret);\n        GsnEip712Library.truncateInPlace(data);\n\n        assembly {\n            let dataSize := mload(data)\n            let dataPtr := add(data, 32)\n\n            revert(dataPtr, dataSize)\n        }\n    }\n\n    function calculateCharge(uint256 gasUsed, GsnTypes.RelayData calldata relayData) public override virtual view returns (uint256) {\n        return relayData.baseRelayFee.add((gasUsed.mul(relayData.gasPrice).mul(relayData.pctRelayFee.add(100))).div(100));\n    }\n\n    function isRelayManagerStaked(address relayManager) public override view returns (bool) {\n        return stakeManager.isRelayManagerStaked(relayManager, address(this), config.minimumStake, config.minimumUnstakeDelay);\n    }\n\n    function deprecateHub(uint256 fromBlock) public override onlyOwner {\n        require(deprecationBlock > block.number, \"Already deprecated\");\n        deprecationBlock = fromBlock;\n        emit HubDeprecated(fromBlock);\n    }\n\n    function isDeprecated() public override view returns (bool) {\n        return block.number >= deprecationBlock;\n    }\n\n    modifier penalizerOnly () {\n        require(msg.sender == penalizer, \"Not penalizer\");\n        _;\n    }\n\n    function penalize(address relayWorker, address payable beneficiary) external override penalizerOnly {\n        address relayManager = workerToManager[relayWorker];\n        // The worker must be controlled by a manager with a locked stake\n        require(relayManager != address(0), \"Unknown relay worker\");\n        require(\n            isRelayManagerStaked(relayManager),\n            \"relay manager not staked\"\n        );\n        IStakeManager.StakeInfo memory stakeInfo = stakeManager.getStakeInfo(relayManager);\n        stakeManager.penalizeRelayManager(relayManager, beneficiary, stakeInfo.stake);\n    }\n}\n",
  "sourcePath": "@opengsn\\contracts\\src\\RelayHub.sol",
  "compiler": {
    "name": "solc",
    "version": "0.7.6+commit.7338295f.Emscripten.clang"
  },
  "schemaVersion": "3.4.3",
  "updatedAt": "2021-10-14T11:51:09.317Z",
  "networkType": "ethereum",
  "devdoc": {
    "kind": "dev",
    "methods": {
      "isRelayManagerStaked(address)": {
        "returns": {
          "_0": "true if stake size and delay satisfy all requirements"
        }
      },
      "owner()": {
        "details": "Returns the address of the current owner."
      },
      "relayCall(uint256,((address,address,uint256,uint256,uint256,bytes,uint256),(uint256,uint256,uint256,address,address,address,bytes,uint256)),bytes,bytes,uint256)": {
        "params": {
          "approvalData": ": dapp-specific data forwarded to preRelayedCall.        This value is *not* verified by the Hub. For example, it can be used to pass a signature to the Paymaster",
          "externalGasLimit": "- the value passed as gasLimit to the transaction. Emits a TransactionRelayed event.",
          "maxAcceptanceBudget": "- max valid value for paymaster.getGasLimits().acceptanceBudget",
          "relayRequest": "- all details of the requested relayed call",
          "signature": "- client's EIP-712 signature over the relayRequest struct"
        }
      },
      "renounceOwnership()": {
        "details": "Leaves the contract without owner. It will not be possible to call `onlyOwner` functions anymore. Can only be called by the current owner. NOTE: Renouncing ownership will leave the contract without an owner, thereby removing any functionality that is only available to the owner."
      },
      "transferOwnership(address)": {
        "details": "Transfers ownership of the contract to a new account (`newOwner`). Can only be called by the current owner."
      }
    },
    "stateVariables": {
      "versionHub": {
        "return": "a SemVer-compliant version of the hub contract"
      }
    },
    "version": 1
  },
  "userdoc": {
    "events": {
      "Deposited(address,address,uint256)": {
        "notice": "Emitted when depositFor is called, including the amount and account that was funded."
      },
      "RelayServerRegistered(address,uint256,uint256,string)": {
        "notice": "Emitted when a relay server registers or updates its details Looking at these events lets a client discover relay servers"
      },
      "RelayWorkersAdded(address,address[],uint256)": {
        "notice": "Emitted when relays are added by a relayManager"
      },
      "TransactionRejectedByPaymaster(address,address,address,address,address,bytes4,uint256,bytes)": {
        "notice": "Emitted when an attempt to relay a call fails and Paymaster does not accept the transaction. The actual relayed call was not executed, and the recipient not charged."
      },
      "TransactionRelayed(address,address,address,address,address,bytes4,uint8,uint256)": {
        "notice": "Emitted when a transaction is relayed. Note that the actual encoded function might be reverted: this will be indicated in the status field. Useful when monitoring a relay's operation and relayed calls to a contract. Charge is the ether value deducted from the recipient's balance, paid to the relay's manager."
      },
      "Withdrawn(address,address,uint256)": {
        "notice": "Emitted when an account withdraws funds from RelayHub."
      }
    },
    "kind": "user",
    "methods": {
      "addRelayWorkers(address[])": {
        "notice": "Add new worker addresses controlled by sender who must be a staked Relay Manager address. Emits a RelayWorkersAdded event. This function can be called multiple times, emitting new events"
      },
      "balanceOf(address)": {
        "notice": "Returns an account's deposits. It can be either a deposit of a paymaster, or a revenue of a relay manager."
      },
      "calculateCharge(uint256,(uint256,uint256,uint256,address,address,address,bytes,uint256))": {
        "notice": "The fee is expressed as a base fee in wei plus percentage on actual charge. E.g. a value of 40 stands for a 40% fee, so the recipient will be charged for 1.4 times the spent amount."
      },
      "depositFor(address)": {
        "notice": "Deposits ether for a contract, so that it can receive (and pay for) relayed transactions. Unused balance can only be withdrawn by the contract itself, by calling withdraw. Emits a Deposited event."
      },
      "getConfiguration()": {
        "notice": "Returns the whole hub configuration"
      },
      "isRelayManagerStaked(address)": {
        "notice": "Uses StakeManager info to decide if the Relay Manager can be considered staked"
      },
      "relayCall(uint256,((address,address,uint256,uint256,uint256,bytes,uint256),(uint256,uint256,uint256,address,address,address,bytes,uint256)),bytes,bytes,uint256)": {
        "notice": "Relays a transaction. For this to succeed, multiple conditions must be met:  - Paymaster's \"preRelayCall\" method must succeed and not revert  - the sender must be a registered Relay Worker that the user signed  - the transaction's gas price must be equal or larger than the one that was signed by the sender  - the transaction must have enough gas to run all internal transactions if they use all gas available to them  - the Paymaster must have enough balance to pay the Relay Worker for the scenario when all gas is spent If all conditions are met, the call will be relayed and the recipient charged. Arguments:"
      },
      "withdraw(uint256,address)": {
        "notice": "Withdraws from an account's balance, sending it back to it. Relay managers call this to retrieve their revenue, and contracts can also use it to reduce their funding. Emits a Withdrawn event."
      }
    },
    "version": 1
  }
}