{
  "contractName": "WhitelistPaymaster",
  "abi": [
    {
      "anonymous": false,
      "inputs": [
        {
          "indexed": true,
          "internalType": "address",
          "name": "previousOwner",
          "type": "address"
        },
        {
          "indexed": true,
          "internalType": "address",
          "name": "newOwner",
          "type": "address"
        }
      ],
      "name": "OwnershipTransferred",
      "type": "event"
    },
    {
      "inputs": [],
      "name": "CALLDATA_SIZE_LIMIT",
      "outputs": [
        {
          "internalType": "uint256",
          "name": "",
          "type": "uint256"
        }
      ],
      "stateMutability": "view",
      "type": "function"
    },
    {
      "inputs": [],
      "name": "FORWARDER_HUB_OVERHEAD",
      "outputs": [
        {
          "internalType": "uint256",
          "name": "",
          "type": "uint256"
        }
      ],
      "stateMutability": "view",
      "type": "function"
    },
    {
      "inputs": [],
      "name": "PAYMASTER_ACCEPTANCE_BUDGET",
      "outputs": [
        {
          "internalType": "uint256",
          "name": "",
          "type": "uint256"
        }
      ],
      "stateMutability": "view",
      "type": "function"
    },
    {
      "inputs": [],
      "name": "POST_RELAYED_CALL_GAS_LIMIT",
      "outputs": [
        {
          "internalType": "uint256",
          "name": "",
          "type": "uint256"
        }
      ],
      "stateMutability": "view",
      "type": "function"
    },
    {
      "inputs": [],
      "name": "PRE_RELAYED_CALL_GAS_LIMIT",
      "outputs": [
        {
          "internalType": "uint256",
          "name": "",
          "type": "uint256"
        }
      ],
      "stateMutability": "view",
      "type": "function"
    },
    {
      "inputs": [
        {
          "components": [
            {
              "components": [
                {
                  "internalType": "address",
                  "name": "from",
                  "type": "address"
                },
                {
                  "internalType": "address",
                  "name": "to",
                  "type": "address"
                },
                {
                  "internalType": "uint256",
                  "name": "value",
                  "type": "uint256"
                },
                {
                  "internalType": "uint256",
                  "name": "gas",
                  "type": "uint256"
                },
                {
                  "internalType": "uint256",
                  "name": "nonce",
                  "type": "uint256"
                },
                {
                  "internalType": "bytes",
                  "name": "data",
                  "type": "bytes"
                },
                {
                  "internalType": "uint256",
                  "name": "validUntil",
                  "type": "uint256"
                }
              ],
              "internalType": "struct IForwarder.ForwardRequest",
              "name": "request",
              "type": "tuple"
            },
            {
              "components": [
                {
                  "internalType": "uint256",
                  "name": "gasPrice",
                  "type": "uint256"
                },
                {
                  "internalType": "uint256",
                  "name": "pctRelayFee",
                  "type": "uint256"
                },
                {
                  "internalType": "uint256",
                  "name": "baseRelayFee",
                  "type": "uint256"
                },
                {
                  "internalType": "address",
                  "name": "relayWorker",
                  "type": "address"
                },
                {
                  "internalType": "address",
                  "name": "paymaster",
                  "type": "address"
                },
                {
                  "internalType": "address",
                  "name": "forwarder",
                  "type": "address"
                },
                {
                  "internalType": "bytes",
                  "name": "paymasterData",
                  "type": "bytes"
                },
                {
                  "internalType": "uint256",
                  "name": "clientId",
                  "type": "uint256"
                }
              ],
              "internalType": "struct GsnTypes.RelayData",
              "name": "relayData",
              "type": "tuple"
            }
          ],
          "internalType": "struct GsnTypes.RelayRequest",
          "name": "relayRequest",
          "type": "tuple"
        }
      ],
      "name": "_verifyForwarder",
      "outputs": [],
      "stateMutability": "view",
      "type": "function"
    },
    {
      "inputs": [],
      "name": "getGasAndDataLimits",
      "outputs": [
        {
          "components": [
            {
              "internalType": "uint256",
              "name": "acceptanceBudget",
              "type": "uint256"
            },
            {
              "internalType": "uint256",
              "name": "preRelayedCallGasLimit",
              "type": "uint256"
            },
            {
              "internalType": "uint256",
              "name": "postRelayedCallGasLimit",
              "type": "uint256"
            },
            {
              "internalType": "uint256",
              "name": "calldataSizeLimit",
              "type": "uint256"
            }
          ],
          "internalType": "struct IPaymaster.GasAndDataLimits",
          "name": "limits",
          "type": "tuple"
        }
      ],
      "stateMutability": "view",
      "type": "function"
    },
    {
      "inputs": [],
      "name": "getHubAddr",
      "outputs": [
        {
          "internalType": "address",
          "name": "",
          "type": "address"
        }
      ],
      "stateMutability": "view",
      "type": "function"
    },
    {
      "inputs": [],
      "name": "getRelayHubDeposit",
      "outputs": [
        {
          "internalType": "uint256",
          "name": "",
          "type": "uint256"
        }
      ],
      "stateMutability": "view",
      "type": "function"
    },
    {
      "inputs": [],
      "name": "owner",
      "outputs": [
        {
          "internalType": "address",
          "name": "",
          "type": "address"
        }
      ],
      "stateMutability": "view",
      "type": "function"
    },
    {
      "inputs": [
        {
          "internalType": "bytes",
          "name": "context",
          "type": "bytes"
        },
        {
          "internalType": "bool",
          "name": "success",
          "type": "bool"
        },
        {
          "internalType": "uint256",
          "name": "gasUseWithoutPost",
          "type": "uint256"
        },
        {
          "components": [
            {
              "internalType": "uint256",
              "name": "gasPrice",
              "type": "uint256"
            },
            {
              "internalType": "uint256",
              "name": "pctRelayFee",
              "type": "uint256"
            },
            {
              "internalType": "uint256",
              "name": "baseRelayFee",
              "type": "uint256"
            },
            {
              "internalType": "address",
              "name": "relayWorker",
              "type": "address"
            },
            {
              "internalType": "address",
              "name": "paymaster",
              "type": "address"
            },
            {
              "internalType": "address",
              "name": "forwarder",
              "type": "address"
            },
            {
              "internalType": "bytes",
              "name": "paymasterData",
              "type": "bytes"
            },
            {
              "internalType": "uint256",
              "name": "clientId",
              "type": "uint256"
            }
          ],
          "internalType": "struct GsnTypes.RelayData",
          "name": "relayData",
          "type": "tuple"
        }
      ],
      "name": "postRelayedCall",
      "outputs": [],
      "stateMutability": "nonpayable",
      "type": "function"
    },
    {
      "inputs": [],
      "name": "renounceOwnership",
      "outputs": [],
      "stateMutability": "nonpayable",
      "type": "function"
    },
    {
      "inputs": [
        {
          "internalType": "address",
          "name": "",
          "type": "address"
        }
      ],
      "name": "senderWhitelist",
      "outputs": [
        {
          "internalType": "bool",
          "name": "",
          "type": "bool"
        }
      ],
      "stateMutability": "view",
      "type": "function"
    },
    {
      "inputs": [
        {
          "internalType": "contract IRelayHub",
          "name": "hub",
          "type": "address"
        }
      ],
      "name": "setRelayHub",
      "outputs": [],
      "stateMutability": "nonpayable",
      "type": "function"
    },
    {
      "inputs": [
        {
          "internalType": "contract IForwarder",
          "name": "forwarder",
          "type": "address"
        }
      ],
      "name": "setTrustedForwarder",
      "outputs": [],
      "stateMutability": "nonpayable",
      "type": "function"
    },
    {
      "inputs": [
        {
          "internalType": "address",
          "name": "",
          "type": "address"
        }
      ],
      "name": "targetWhitelist",
      "outputs": [
        {
          "internalType": "bool",
          "name": "",
          "type": "bool"
        }
      ],
      "stateMutability": "view",
      "type": "function"
    },
    {
      "inputs": [
        {
          "internalType": "address",
          "name": "newOwner",
          "type": "address"
        }
      ],
      "name": "transferOwnership",
      "outputs": [],
      "stateMutability": "nonpayable",
      "type": "function"
    },
    {
      "inputs": [],
      "name": "trustedForwarder",
      "outputs": [
        {
          "internalType": "contract IForwarder",
          "name": "",
          "type": "address"
        }
      ],
      "stateMutability": "view",
      "type": "function"
    },
    {
      "inputs": [],
      "name": "useSenderWhitelist",
      "outputs": [
        {
          "internalType": "bool",
          "name": "",
          "type": "bool"
        }
      ],
      "stateMutability": "view",
      "type": "function"
    },
    {
      "inputs": [],
      "name": "useTargetWhitelist",
      "outputs": [
        {
          "internalType": "bool",
          "name": "",
          "type": "bool"
        }
      ],
      "stateMutability": "view",
      "type": "function"
    },
    {
      "inputs": [],
      "name": "versionPaymaster",
      "outputs": [
        {
          "internalType": "string",
          "name": "",
          "type": "string"
        }
      ],
      "stateMutability": "view",
      "type": "function"
    },
    {
      "inputs": [
        {
          "internalType": "uint256",
          "name": "amount",
          "type": "uint256"
        },
        {
          "internalType": "address payable",
          "name": "target",
          "type": "address"
        }
      ],
      "name": "withdrawRelayHubDepositTo",
      "outputs": [],
      "stateMutability": "nonpayable",
      "type": "function"
    },
    {
      "stateMutability": "payable",
      "type": "receive"
    },
    {
      "inputs": [
        {
          "internalType": "address",
          "name": "sender",
          "type": "address"
        }
      ],
      "name": "whitelistSender",
      "outputs": [],
      "stateMutability": "nonpayable",
      "type": "function"
    },
    {
      "inputs": [
        {
          "internalType": "address",
          "name": "target",
          "type": "address"
        }
      ],
      "name": "whitelistTarget",
      "outputs": [],
      "stateMutability": "nonpayable",
      "type": "function"
    },
    {
      "inputs": [
        {
          "components": [
            {
              "components": [
                {
                  "internalType": "address",
                  "name": "from",
                  "type": "address"
                },
                {
                  "internalType": "address",
                  "name": "to",
                  "type": "address"
                },
                {
                  "internalType": "uint256",
                  "name": "value",
                  "type": "uint256"
                },
                {
                  "internalType": "uint256",
                  "name": "gas",
                  "type": "uint256"
                },
                {
                  "internalType": "uint256",
                  "name": "nonce",
                  "type": "uint256"
                },
                {
                  "internalType": "bytes",
                  "name": "data",
                  "type": "bytes"
                },
                {
                  "internalType": "uint256",
                  "name": "validUntil",
                  "type": "uint256"
                }
              ],
              "internalType": "struct IForwarder.ForwardRequest",
              "name": "request",
              "type": "tuple"
            },
            {
              "components": [
                {
                  "internalType": "uint256",
                  "name": "gasPrice",
                  "type": "uint256"
                },
                {
                  "internalType": "uint256",
                  "name": "pctRelayFee",
                  "type": "uint256"
                },
                {
                  "internalType": "uint256",
                  "name": "baseRelayFee",
                  "type": "uint256"
                },
                {
                  "internalType": "address",
                  "name": "relayWorker",
                  "type": "address"
                },
                {
                  "internalType": "address",
                  "name": "paymaster",
                  "type": "address"
                },
                {
                  "internalType": "address",
                  "name": "forwarder",
                  "type": "address"
                },
                {
                  "internalType": "bytes",
                  "name": "paymasterData",
                  "type": "bytes"
                },
                {
                  "internalType": "uint256",
                  "name": "clientId",
                  "type": "uint256"
                }
              ],
              "internalType": "struct GsnTypes.RelayData",
              "name": "relayData",
              "type": "tuple"
            }
          ],
          "internalType": "struct GsnTypes.RelayRequest",
          "name": "relayRequest",
          "type": "tuple"
        },
        {
          "internalType": "bytes",
          "name": "signature",
          "type": "bytes"
        },
        {
          "internalType": "bytes",
          "name": "approvalData",
          "type": "bytes"
        },
        {
          "internalType": "uint256",
          "name": "maxPossibleGas",
          "type": "uint256"
        }
      ],
      "name": "preRelayedCall",
      "outputs": [
        {
          "internalType": "bytes",
          "name": "context",
          "type": "bytes"
        },
        {
          "internalType": "bool",
          "name": "revertOnRecipientRevert",
          "type": "bool"
        }
      ],
      "stateMutability": "nonpayable",
      "type": "function"
    }
  ],
  "bytecode": "0x608060405234801561001057600080fd5b5060006100216100c460201b60201c565b9050806000806101000a81548173ffffffffffffffffffffffffffffffffffffffff021916908373ffffffffffffffffffffffffffffffffffffffff1602179055508073ffffffffffffffffffffffffffffffffffffffff16600073ffffffffffffffffffffffffffffffffffffffff167f8be0079c531659141344cd1fd0a4f28419497f9722a3daafe3b4186f6b6457e060405160405180910390a3506100cc565b600033905090565b612208806100db6000396000f3fe6080604052600436106101695760003560e01c80638222f07d116100d1578063b90b41cf1161008a578063dd1bcaa111610064578063dd1bcaa114610631578063df463a661461065c578063f2fde38b14610687578063f9c002f7146106b057610290565b8063b90b41cf146105b2578063bbdaa3c9146105dd578063da7422281461060857610290565b80638222f07d1461048e578063858437b0146104cb5780638da5cb5b14610508578063921276ea14610533578063a5dcd07b1461055e578063b039a88f1461058757610290565b80635c5e3db1116101235780635c5e3db1146103a4578063715018a6146103cf57806374e861d6146103e657806376fa01c3146104115780637bb052641461043a5780637da0a8771461046357610290565b8062be5dd4146102955780631cfda9fa146102d35780632afe31c1146102fc5780632d14c4b7146103275780632f10a6c6146103505780634f28bfb91461037957610290565b3661029057600073ffffffffffffffffffffffffffffffffffffffff16600160009054906101000a900473ffffffffffffffffffffffffffffffffffffffff1673ffffffffffffffffffffffffffffffffffffffff161415610200576040517f08c379a00000000000000000000000000000000000000000000000000000000081526004016101f790611e72565b60405180910390fd5b600160009054906101000a900473ffffffffffffffffffffffffffffffffffffffff1673ffffffffffffffffffffffffffffffffffffffff1663aa67c91934306040518363ffffffff1660e01b815260040161025c9190611d6f565b6000604051808303818588803b15801561027557600080fd5b505af1158015610289573d6000803e3d6000fd5b5050505050005b600080fd5b3480156102a157600080fd5b506102bc60048036038101906102b79190611904565b6106db565b6040516102ca929190611da5565b60405180910390f35b3480156102df57600080fd5b506102fa60048036038101906102f59190611787565b610887565b005b34801561030857600080fd5b506103116109ac565b60405161031e9190611f0d565b60405180910390f35b34801561033357600080fd5b5061034e600480360381019061034991906119e0565b610a5e565b005b34801561035c57600080fd5b5061037760048036038101906103729190611787565b610b9f565b005b34801561038557600080fd5b5061038e610cc4565b60405161039b9190611d8a565b60405180910390f35b3480156103b057600080fd5b506103b9610cd7565b6040516103c69190611f0d565b60405180910390f35b3480156103db57600080fd5b506103e4610cdd565b005b3480156103f257600080fd5b506103fb610e4a565b6040516104089190611d54565b60405180910390f35b34801561041d57600080fd5b50610438600480360381019061043391906117d9565b610e74565b005b34801561044657600080fd5b50610461600480360381019061045c919061189a565b610e7b565b005b34801561046f57600080fd5b50610478610f6e565b6040516104859190611dd5565b60405180910390f35b34801561049a57600080fd5b506104b560048036038101906104b09190611787565b610f94565b6040516104c29190611d8a565b60405180910390f35b3480156104d757600080fd5b506104f260048036038101906104ed9190611787565b610fb4565b6040516104ff9190611d8a565b60405180910390f35b34801561051457600080fd5b5061051d610fd4565b60405161052a9190611d54565b60405180910390f35b34801561053f57600080fd5b50610548610ffd565b6040516105559190611df0565b60405180910390f35b34801561056a57600080fd5b50610585600480360381019061058091906118c3565b61101d565b005b34801561059357600080fd5b5061059c6110da565b6040516105a99190611ef2565b60405180910390f35b3480156105be57600080fd5b506105c7611117565b6040516105d49190611f0d565b60405180910390f35b3480156105e957600080fd5b506105f261111d565b6040516105ff9190611f0d565b60405180910390f35b34801561061457600080fd5b5061062f600480360381019061062a9190611871565b611124565b005b34801561063d57600080fd5b50610646611217565b6040516106539190611d8a565b60405180910390f35b34801561066857600080fd5b5061067161122a565b60405161067e9190611f0d565b60405180910390f35b34801561069357600080fd5b506106ae60048036038101906106a99190611787565b611235565b005b3480156106bc57600080fd5b506106c5611427565b6040516106d29190611f0d565b60405180910390f35b60606000600260149054906101000a900460ff16156107a257600360008980600001906107089190611f51565b600001602081019061071a9190611787565b73ffffffffffffffffffffffffffffffffffffffff1673ffffffffffffffffffffffffffffffffffffffff16815260200190815260200160002060009054906101000a900460ff166107a1576040517f08c379a000000000000000000000000000000000000000000000000000000000815260040161079890611ed2565b60405180910390fd5b5b600260159054906101000a900460ff161561086557600460008980600001906107cb9190611f51565b60200160208101906107dd9190611787565b73ffffffffffffffffffffffffffffffffffffffff1673ffffffffffffffffffffffffffffffffffffffff16815260200190815260200160002060009054906101000a900460ff16610864576040517f08c379a000000000000000000000000000000000000000000000000000000000815260040161085b90611e12565b60405180910390fd5b5b6000604051806020016040528060008152509091509150965096945050505050565b61088f61142e565b73ffffffffffffffffffffffffffffffffffffffff166108ad610fd4565b73ffffffffffffffffffffffffffffffffffffffff1614610936576040517f08c379a00000000000000000000000000000000000000000000000000000000081526004018080602001828103825260208152602001807f4f776e61626c653a2063616c6c6572206973206e6f7420746865206f776e657281525060200191505060405180910390fd5b6001600460008373ffffffffffffffffffffffffffffffffffffffff1673ffffffffffffffffffffffffffffffffffffffff16815260200190815260200160002060006101000a81548160ff0219169083151502179055506001600260156101000a81548160ff02191690831515021790555050565b6000600160009054906101000a900473ffffffffffffffffffffffffffffffffffffffff1673ffffffffffffffffffffffffffffffffffffffff166370a08231306040518263ffffffff1660e01b8152600401610a099190611d6f565b60206040518083038186803b158015610a2157600080fd5b505afa158015610a35573d6000803e3d6000fd5b505050506040513d601f19601f82011682018060405250810190610a5991906119b7565b905090565b610a6661142e565b73ffffffffffffffffffffffffffffffffffffffff16610a84610fd4565b73ffffffffffffffffffffffffffffffffffffffff1614610b0d576040517f08c379a00000000000000000000000000000000000000000000000000000000081526004018080602001828103825260208152602001807f4f776e61626c653a2063616c6c6572206973206e6f7420746865206f776e657281525060200191505060405180910390fd5b600160009054906101000a900473ffffffffffffffffffffffffffffffffffffffff1673ffffffffffffffffffffffffffffffffffffffff1662f714ce83836040518363ffffffff1660e01b8152600401610b69929190611f28565b600060405180830381600087803b158015610b8357600080fd5b505af1158015610b97573d6000803e3d6000fd5b505050505050565b610ba761142e565b73ffffffffffffffffffffffffffffffffffffffff16610bc5610fd4565b73ffffffffffffffffffffffffffffffffffffffff1614610c4e576040517f08c379a00000000000000000000000000000000000000000000000000000000081526004018080602001828103825260208152602001807f4f776e61626c653a2063616c6c6572206973206e6f7420746865206f776e657281525060200191505060405180910390fd5b6001600360008373ffffffffffffffffffffffffffffffffffffffff1673ffffffffffffffffffffffffffffffffffffffff16815260200190815260200160002060006101000a81548160ff0219169083151502179055506001600260146101000a81548160ff02191690831515021790555050565b600260159054906101000a900460ff1681565b61290481565b610ce561142e565b73ffffffffffffffffffffffffffffffffffffffff16610d03610fd4565b73ffffffffffffffffffffffffffffffffffffffff1614610d8c576040517f08c379a00000000000000000000000000000000000000000000000000000000081526004018080602001828103825260208152602001807f4f776e61626c653a2063616c6c6572206973206e6f7420746865206f776e657281525060200191505060405180910390fd5b600073ffffffffffffffffffffffffffffffffffffffff1660008054906101000a900473ffffffffffffffffffffffffffffffffffffffff1673ffffffffffffffffffffffffffffffffffffffff167f8be0079c531659141344cd1fd0a4f28419497f9722a3daafe3b4186f6b6457e060405160405180910390a360008060006101000a81548173ffffffffffffffffffffffffffffffffffffffff021916908373ffffffffffffffffffffffffffffffffffffffff160217905550565b6000600160009054906101000a900473ffffffffffffffffffffffffffffffffffffffff16905090565b5050505050565b610e8361142e565b73ffffffffffffffffffffffffffffffffffffffff16610ea1610fd4565b73ffffffffffffffffffffffffffffffffffffffff1614610f2a576040517f08c379a00000000000000000000000000000000000000000000000000000000081526004018080602001828103825260208152602001807f4f776e61626c653a2063616c6c6572206973206e6f7420746865206f776e657281525060200191505060405180910390fd5b80600160006101000a81548173ffffffffffffffffffffffffffffffffffffffff021916908373ffffffffffffffffffffffffffffffffffffffff16021790555050565b600260009054906101000a900473ffffffffffffffffffffffffffffffffffffffff1681565b60036020528060005260406000206000915054906101000a900460ff1681565b60046020528060005260406000206000915054906101000a900460ff1681565b60008060009054906101000a900473ffffffffffffffffffffffffffffffffffffffff16905090565b606060405180606001604052806029815260200161218460299139905090565b80806020019061102d9190611f75565b60a001602081019061103f9190611787565b73ffffffffffffffffffffffffffffffffffffffff16600260009054906101000a900473ffffffffffffffffffffffffffffffffffffffff1673ffffffffffffffffffffffffffffffffffffffff16146110ce576040517f08c379a00000000000000000000000000000000000000000000000000000000081526004016110c590611e92565b60405180910390fd5b6110d781611436565b50565b6110e2611636565b604051806080016040528061c350620186a0018152602001620186a081526020016201adb08152602001612904815250905090565b61c35081565b6201adb081565b61112c61142e565b73ffffffffffffffffffffffffffffffffffffffff1661114a610fd4565b73ffffffffffffffffffffffffffffffffffffffff16146111d3576040517f08c379a00000000000000000000000000000000000000000000000000000000081526004018080602001828103825260208152602001807f4f776e61626c653a2063616c6c6572206973206e6f7420746865206f776e657281525060200191505060405180910390fd5b80600260006101000a81548173ffffffffffffffffffffffffffffffffffffffff021916908373ffffffffffffffffffffffffffffffffffffffff16021790555050565b600260149054906101000a900460ff1681565b61c350620186a00181565b61123d61142e565b73ffffffffffffffffffffffffffffffffffffffff1661125b610fd4565b73ffffffffffffffffffffffffffffffffffffffff16146112e4576040517f08c379a00000000000000000000000000000000000000000000000000000000081526004018080602001828103825260208152602001807f4f776e61626c653a2063616c6c6572206973206e6f7420746865206f776e657281525060200191505060405180910390fd5b600073ffffffffffffffffffffffffffffffffffffffff168173ffffffffffffffffffffffffffffffffffffffff16141561136a576040517f08c379a00000000000000000000000000000000000000000000000000000000081526004018080602001828103825260268152602001806121ad6026913960400191505060405180910390fd5b8073ffffffffffffffffffffffffffffffffffffffff1660008054906101000a900473ffffffffffffffffffffffffffffffffffffffff1673ffffffffffffffffffffffffffffffffffffffff167f8be0079c531659141344cd1fd0a4f28419497f9722a3daafe3b4186f6b6457e060405160405180910390a3806000806101000a81548173ffffffffffffffffffffffffffffffffffffffff021916908373ffffffffffffffffffffffffffffffffffffffff16021790555050565b620186a081565b600033905090565b6000808280600001906114499190611f51565b602001602081019061145b9190611787565b73ffffffffffffffffffffffffffffffffffffffff1663572b6c0560e01b8480602001906114899190611f75565b60a001602081019061149b9190611787565b6040516024016114ab9190611d54565b604051602081830303815290604052907bffffffffffffffffffffffffffffffffffffffffffffffffffffffff19166020820180517bffffffffffffffffffffffffffffffffffffffffffffffffffffffff83818316178352505050506040516115159190611d3d565b600060405180830381855afa9150503d8060008114611550576040519150601f19603f3d011682016040523d82523d6000602084013e611555565b606091505b50915091508161159a576040517f08c379a000000000000000000000000000000000000000000000000000000000815260040161159190611e52565b60405180910390fd5b60208151146115de576040517f08c379a00000000000000000000000000000000000000000000000000000000081526004016115d590611eb2565b60405180910390fd5b808060200190518101906115f291906117b0565b611631576040517f08c379a000000000000000000000000000000000000000000000000000000000815260040161162890611e32565b60405180910390fd5b505050565b6040518060800160405280600081526020016000815260200160008152602001600081525090565b60008135905061166d816120f9565b92915050565b60008135905061168281612110565b92915050565b60008135905061169781612127565b92915050565b6000815190506116ac81612127565b92915050565b60008083601f8401126116c457600080fd5b8235905067ffffffffffffffff8111156116dd57600080fd5b6020830191508360018202830111156116f557600080fd5b9250929050565b60008135905061170b8161213e565b92915050565b60008135905061172081612155565b92915050565b6000610100828403121561173957600080fd5b81905092915050565b60006040828403121561175457600080fd5b81905092915050565b60008135905061176c8161216c565b92915050565b6000815190506117818161216c565b92915050565b60006020828403121561179957600080fd5b60006117a78482850161165e565b91505092915050565b6000602082840312156117c257600080fd5b60006117d08482850161169d565b91505092915050565b6000806000806000608086880312156117f157600080fd5b600086013567ffffffffffffffff81111561180b57600080fd5b611817888289016116b2565b9550955050602061182a88828901611688565b935050604061183b8882890161175d565b925050606086013567ffffffffffffffff81111561185857600080fd5b61186488828901611726565b9150509295509295909350565b60006020828403121561188357600080fd5b6000611891848285016116fc565b91505092915050565b6000602082840312156118ac57600080fd5b60006118ba84828501611711565b91505092915050565b6000602082840312156118d557600080fd5b600082013567ffffffffffffffff8111156118ef57600080fd5b6118fb84828501611742565b91505092915050565b6000806000806000806080878903121561191d57600080fd5b600087013567ffffffffffffffff81111561193757600080fd5b61194389828a01611742565b965050602087013567ffffffffffffffff81111561196057600080fd5b61196c89828a016116b2565b9550955050604087013567ffffffffffffffff81111561198b57600080fd5b61199789828a016116b2565b935093505060606119aa89828a0161175d565b9150509295509295509295565b6000602082840312156119c957600080fd5b60006119d784828501611772565b91505092915050565b600080604083850312156119f357600080fd5b6000611a018582860161175d565b9250506020611a1285828601611673565b9150509250929050565b611a258161205b565b82525050565b611a3481611fef565b82525050565b611a4381611fdd565b82525050565b611a5281612001565b82525050565b6000611a6382611f9a565b611a6d8185611fb0565b9350611a7d8185602086016120b5565b611a86816120e8565b840191505092915050565b6000611a9c82611f9a565b611aa68185611fc1565b9350611ab68185602086016120b5565b80840191505092915050565b611acb8161206d565b82525050565b6000611adc82611fa5565b611ae68185611fcc565b9350611af68185602086016120b5565b611aff816120e8565b840191505092915050565b6000611b17601683611fcc565b91507f746172676574206e6f742077686974656c6973746564000000000000000000006000830152602082019050919050565b6000611b57601f83611fcc565b91507f696e76616c696420666f7277617264657220666f7220726563697069656e74006000830152602082019050919050565b6000611b97601c83611fcc565b91507f697354727573746564466f727761726465723a207265766572746564000000006000830152602082019050919050565b6000611bd7601983611fcc565b91507f72656c6179206875622061646472657373206e6f7420736574000000000000006000830152602082019050919050565b6000611c17601883611fcc565b91507f466f72776172646572206973206e6f74207472757374656400000000000000006000830152602082019050919050565b6000611c57602083611fcc565b91507f697354727573746564466f727761726465723a2062616420726573706f6e73656000830152602082019050919050565b6000611c97601683611fcc565b91507f73656e646572206e6f742077686974656c6973746564000000000000000000006000830152602082019050919050565b608082016000820151611ce06000850182611d1f565b506020820151611cf36020850182611d1f565b506040820151611d066040850182611d1f565b506060820151611d196060850182611d1f565b50505050565b611d2881612051565b82525050565b611d3781612051565b82525050565b6000611d498284611a91565b915081905092915050565b6000602082019050611d696000830184611a3a565b92915050565b6000602082019050611d846000830184611a1c565b92915050565b6000602082019050611d9f6000830184611a49565b92915050565b60006040820190508181036000830152611dbf8185611a58565b9050611dce6020830184611a49565b9392505050565b6000602082019050611dea6000830184611ac2565b92915050565b60006020820190508181036000830152611e0a8184611ad1565b905092915050565b60006020820190508181036000830152611e2b81611b0a565b9050919050565b60006020820190508181036000830152611e4b81611b4a565b9050919050565b60006020820190508181036000830152611e6b81611b8a565b9050919050565b60006020820190508181036000830152611e8b81611bca565b9050919050565b60006020820190508181036000830152611eab81611c0a565b9050919050565b60006020820190508181036000830152611ecb81611c4a565b9050919050565b60006020820190508181036000830152611eeb81611c8a565b9050919050565b6000608082019050611f076000830184611cca565b92915050565b6000602082019050611f226000830184611d2e565b92915050565b6000604082019050611f3d6000830185611d2e565b611f4a6020830184611a2b565b9392505050565b60008235600160e003833603038112611f6957600080fd5b80830191505092915050565b60008235600161010003833603038112611f8e57600080fd5b80830191505092915050565b600081519050919050565b600081519050919050565b600082825260208201905092915050565b600081905092915050565b600082825260208201905092915050565b6000611fe882612031565b9050919050565b6000611ffa82612031565b9050919050565b60008115159050919050565b600061201882611fdd565b9050919050565b600061202a82611fdd565b9050919050565b600073ffffffffffffffffffffffffffffffffffffffff82169050919050565b6000819050919050565b600061206682612091565b9050919050565b60006120788261207f565b9050919050565b600061208a82612031565b9050919050565b600061209c826120a3565b9050919050565b60006120ae82612031565b9050919050565b60005b838110156120d35780820151818401526020810190506120b8565b838111156120e2576000848401525b50505050565b6000601f19601f8301169050919050565b61210281611fdd565b811461210d57600080fd5b50565b61211981611fef565b811461212457600080fd5b50565b61213081612001565b811461213b57600080fd5b50565b6121478161200d565b811461215257600080fd5b50565b61215e8161201f565b811461216957600080fd5b50565b61217581612051565b811461218057600080fd5b5056fe322e322e302b6f70656e67736e2e61636365707465766572797468696e672e697061796d61737465724f776e61626c653a206e6577206f776e657220697320746865207a65726f2061646472657373a2646970667358221220db03269d0e98b17bdc85c50bc1d8c8cc0362ca34fdbec5aa10db60bea11d4b9b64736f6c63430007060033",
  "immutableReferences": {},
  "source": "//SPDX-License-Identifier: MIT\npragma solidity ^0.7.6;\npragma experimental ABIEncoderV2;\n\nimport \"./AcceptEverythingPaymaster.sol\";\n\n///a sample paymaster that has whitelists for senders and targets.\n/// - if at least one sender is whitelisted, then ONLY whitelisted senders are allowed.\n/// - if at least one target is whitelisted, then ONLY whitelisted targets are allowed.\ncontract WhitelistPaymaster is AcceptEverythingPaymaster {\n\n    bool public useSenderWhitelist;\n    bool public useTargetWhitelist;\n    mapping (address=>bool) public senderWhitelist;\n    mapping (address=>bool) public targetWhitelist;\n\n    function whitelistSender(address sender) public onlyOwner {\n        senderWhitelist[sender]=true;\n        useSenderWhitelist = true;\n    }\n    function whitelistTarget(address target) public onlyOwner {\n        targetWhitelist[target]=true;\n        useTargetWhitelist = true;\n    }\n\n    function preRelayedCall(\n        GsnTypes.RelayRequest calldata relayRequest,\n        bytes calldata signature,\n        bytes calldata approvalData,\n        uint256 maxPossibleGas\n    )\n    external\n    override\n    virtual\n    returns (bytes memory context, bool revertOnRecipientRevert) {\n        (relayRequest, signature, approvalData, maxPossibleGas);\n\n        if ( useSenderWhitelist ) {\n            require( senderWhitelist[relayRequest.request.from], \"sender not whitelisted\");\n        }\n        if ( useTargetWhitelist ) {\n            require( targetWhitelist[relayRequest.request.to], \"target not whitelisted\");\n        }\n        return (\"\", false);\n    }\n}\n",
  "sourcePath": "@opengsn\\paymasters\\contracts\\WhitelistPaymaster.sol",
  "compiler": {
    "name": "solc",
    "version": "0.7.6+commit.7338295f.Emscripten.clang"
  },
  "schemaVersion": "3.4.3",
  "updatedAt": "2021-10-14T11:51:09.253Z",
  "networkType": "ethereum",
  "devdoc": {
    "kind": "dev",
    "methods": {
      "owner()": {
        "details": "Returns the address of the current owner."
      },
      "postRelayedCall(bytes,bool,uint256,(uint256,uint256,uint256,address,address,address,bytes,uint256))": {
        "params": {
          "context": "- the call context, as returned by the preRelayedCall",
          "gasUseWithoutPost": "- the actual amount of gas used by the entire transaction, EXCEPT        the gas used by the postRelayedCall itself.",
          "relayData": "- the relay params of the request. can be used by relayHub.calculateCharge() Revert in this functions causes a revert of the client's relayed call (and preRelayedCall(), but the Paymaster is still committed to pay the relay for the entire transaction.",
          "success": "- true if the relayed call succeeded, false if it reverted"
        }
      },
      "preRelayedCall(((address,address,uint256,uint256,uint256,bytes,uint256),(uint256,uint256,uint256,address,address,address,bytes,uint256)),bytes,bytes,uint256)": {
        "params": {
          "approvalData": "- extra dapp-specific data (e.g. signature from trusted party)",
          "maxPossibleGas": "- based on values returned from {@link getGasAndDataLimits},         the RelayHub will calculate the maximum possible amount of gas the user may be charged for.         In order to convert this value to wei, the Paymaster has to call \"relayHub.calculateCharge()\"  return:      a context to be passed to postRelayedCall      rejectOnRecipientRevert - TRUE if paymaster want to reject the TX if the recipient reverts.          FALSE means that rejects by the recipient will be completed on chain, and paid by the paymaster.          (note that in the latter case, the preRelayedCall and postRelayedCall are not reverted).",
          "relayRequest": "- the full relay request structure",
          "signature": "- user's EIP712-compatible signature of the {@link relayRequest}.              Note that in most cases the paymaster shouldn't try use it at all. It is always checked              by the forwarder immediately after preRelayedCall returns."
        }
      },
      "renounceOwnership()": {
        "details": "Leaves the contract without owner. It will not be possible to call `onlyOwner` functions anymore. Can only be called by the current owner. NOTE: Renouncing ownership will leave the contract without an owner, thereby removing any functionality that is only available to the owner."
      },
      "transferOwnership(address)": {
        "details": "Transfers ownership of the contract to a new account (`newOwner`). Can only be called by the current owner."
      }
    },
    "version": 1
  },
  "userdoc": {
    "kind": "user",
    "methods": {
      "getGasAndDataLimits()": {
        "notice": "Return the Gas Limits and msg.data max size constants used by the Paymaster."
      },
      "getHubAddr()": {
        "notice": "return the relayHub of this contract."
      },
      "getRelayHubDeposit()": {
        "notice": "check current deposit on relay hub."
      },
      "postRelayedCall(bytes,bool,uint256,(uint256,uint256,uint256,address,address,address,bytes,uint256))": {
        "notice": "This method is called after the actual relayed function call. It may be used to record the transaction (e.g. charge the caller by some contract logic) for this call. MUST be protected with relayHubOnly() in case it modifies state."
      },
      "preRelayedCall(((address,address,uint256,uint256,uint256,bytes,uint256),(uint256,uint256,uint256,address,address,address,bytes,uint256)),bytes,bytes,uint256)": {
        "notice": "Called by Relay (and RelayHub), to validate if the paymaster agrees to pay for this call. MUST be protected with relayHubOnly() in case it modifies state. The Paymaster rejects by the following \"revert\" operations  - preRelayedCall() method reverts  - the forwarder reverts because of nonce or signature error  - the paymaster returned \"rejectOnRecipientRevert\", and the recipient contract reverted. In any of the above cases, all paymaster calls (and recipient call) are reverted. In any other case, the paymaster agrees to pay for the gas cost of the transaction (note  that this includes also postRelayedCall revert) The rejectOnRecipientRevert flag means the Paymaster \"delegate\" the rejection to the recipient  code.  It also means the Paymaster trust the recipient to reject fast: both preRelayedCall,  forwarder check and receipient checks must fit into the GasLimits.acceptanceBudget,  otherwise the TX is paid by the Paymaster."
      },
      "withdrawRelayHubDepositTo(uint256,address)": {
        "notice": "withdraw deposit from relayHub"
      }
    },
    "notice": "a sample paymaster that has whitelists for senders and targets. - if at least one sender is whitelisted, then ONLY whitelisted senders are allowed. - if at least one target is whitelisted, then ONLY whitelisted targets are allowed.",
    "version": 1
  }
}